:100000000C94DA0C0C94FE0C0C94FE0C0C94A728A7
:100010000C94FE0C0C947B280C944F280C94FE0C32
:100020000C94FE0C0C94FE0C0C94FE0C0C94FE0C28
:100030000C94FE0C0C94FE0C0C94FE0C0C94FE0C18
:100040000C94FE0C0C94FE0C0C94FE0C0C94FE0C08
:100050000C94C2270C94FE0C0C94FE0C0C94FE0C19
:100060000C94FE0C0C94FE0C0C94FE0C0C94FE0CE8
:100070000C94FE0C0C94FE0C0C94FE0C0C94FE0CD8
:100080000C94FE0C0C94FE0C0C94FE0C0C94222789
:100090000C94FE0C0C94FE0C0C94FE0C0C94FE0CB8
:1000A0000C94FE0C0C94FE0C0C94FE0C0C94FE0CA8
:1000B0000C94FE0C0C94FE0C0C94FE0C0C94FE0C98
:1000C0000C94FE0C0C94FE0C0C94FE0C0C94FE0C88
:1000D0000C94FE0C0C94FE0C0C94FE0C0C94FE0C78
:1000E0000C94FE0C81377E37843787378A378D37FB
:1000F00090379337963799379C379F37A237A53774
:10010000A837AB37AE37B137B4370D380A381038A7
:100110001338163819381C381F3822382538283833
:100120002B382E3831383438373846384638463848
:100130003A383D38403843385F38483A483A483AC8
:10014000483A483A5C386238483A483A483A483A75
:10015000483A483A483A653868386B38483A6E3811
:100160007138483A483A483A483A483A7438483A2E
:10017000483A77387A38483A483A483A483A483A12
:10018000483A7D3880388338483A483A483A863881
:1001900089388C38483A8F38483A9238483A483A41
:1001A0009538483A98389B389E38A138A438483A50
:1001B000483A483AA738483A483A483A483A483AD2
:1001C000483A483A483AAA38483A483AAD38B038F6
:1001D000B338B638483A483AB938BC38BF38483AE4
:1001E000C238483AC538483AC838CB38483ACE3889
:1001F000483A483A483A483A483AD138483A483A68
:10020000483A483A483A483A483AD438D738DA3837
:10021000483A483ADD38483A483A483AE038483AA5
:10022000483AE338E638E938483A483AEC38EF38A3
:10023000F238F538483A483AF838FB38FE38013990
:10024000043907390A390D39103913391639193972
:100250001C391F392239253928392B392E393139A2
:10026000343937393A393D394039433946394939D2
:100270004C394F395239553958395B395E39613902
:10028000643967396A396D39703973397639793932
:100290007C397F398239853988398B398E39913962
:1002A000943997399A399D39A039A339A639A93992
:1002B000AC39AF39B239B539B839BB39BE39C139C2
:1002C000C439C739CA39CD39D039D339D639D939F2
:1002D000483A483ADC39DF39E239E539E839EB396F
:1002E000EE39F139F439F739FA39FD39003A033A80
:1002F000063A093A0C3A0F3A123A153A183A1B3AAA
:100300001E3A213A243A273A2A3A2D3A303A333AD9
:10031000363A393A3C3A3F3A483A483A483A483A03
:10032000483A423A483A483A453A5365206861208B
:100330007265616C697A61646F20756E61207061AD
:100340007261646120737561766520656E20746FDB
:10035000646F73206C6F7320456A6573200A004FC9
:10036000747261204F7063696F6E3A2053616C69DB
:1003700072205375624D656E75200A00342E526FDF
:100380006C6C2E200A00332E2050697463682E2076
:100390000A00322E20436F646F2E200A00312E2077
:1003A000486F6D62726F2E200A00302E2043696EF6
:1003B000747572612E200A00446967697465204172
:1003C00072746963756C6163696F6E203A200A000C
:1003D0004F747261204F7063696F6E3A2053616C85
:1003E0006972205375624D656E75200A00332E20A8
:1003F00053656172636820486F6D6520526F6C6C45
:1004000020506F736974697665200A00322E204887
:10041000616C6C617220656E204E756D65726F2027
:100420006465205061736F7320706F72205265761F
:100430006F6C7563696F6E2064656C204D6F746FAF
:1004400072200A00312E2048616C6C6172204C6968
:100450006D697465732028677261646F7329206405
:10046000656C20526F626F74200A00302E20446544
:10047000627567205369676E616C2053746174758F
:1004800073200A004F747261204F7063696F6E3A77
:100490002053616C6972205375624D656E75200A38
:1004A00000312E204365727261722047726970704C
:1004B0006572200A00302E204162726972204772F4
:1004C0006970706572200A00342E526F6C6C2E2099
:1004D0000A00332E2050697463682E200A00322EE1
:1004E00020436F646F2E200A00312E20486F6D620A
:1004F000726F2E200A00302E2043696E747572616F
:100500002E200A00446967697465206C612061725D
:10051000746963756C6163696F6E200A004F747251
:1005200061204F7063696F6E3A2053616C6972206D
:100530005375624D656E75200A00312E20496D702D
:1005400072696D6972205472617A6F200A00302ED0
:1005500020436F6E66696775726172205472617AAA
:100560006F200A004572726F7220656E206C6120E8
:100570005472616E736D6973696F6E2049324320E6
:10058000656E204A6172626F7465722E63200A0084
:100590004C6120506F7365206E6F204578697374CD
:1005A00065200A0044696769746520656C204944C8
:1005B000206465206C6120506F7365207175652023
:1005C0006465736561204C656572202E200A0044C5
:1005D000696769746520656C204944206465206CF6
:1005E0006120506F73652071756520446573656186
:1005F00020456E636F6E747261722E200A0044692A
:1006000067697465206C6120706F736963696F6ED0
:1006100020646520526F6C6C202E200A00446967AC
:10062000697465206C6120706F736963696F6E20F7
:100630006465205069746368202E200A004469674D
:10064000697465206C6120706F736963696F6E20D7
:10065000646520436F646F202E200A004469676937
:100660007465206C6120706F736963696F6E2064BC
:100670006520486F6D62726F202E200A0044696702
:10068000697465206C6120706F736963696F6E2097
:1006900064652063696E74757261202E200A0044BF
:1006A000696769746520656C204944206465206C25
:1006B0006120506F73652071756520646573656195
:1006C00020677261626172202E200A0044696769A6
:1006D000746520656C204944206465206C6120505D
:1006E0006F7365207175652064657365612067723D
:1006F00061626172202E200A004F747261204F7077
:1007000063696F6E3A2053616C6972205375624D54
:10071000656E75200A00392E20496D7072696D6909
:1007200072204461746F732064652054726179652E
:1007300063746F726961200A00382E204F627465FD
:100740006E657220547261796563746F726961209D
:10075000646520756E20566563746F722064652031
:10076000494473200A00372E205265746F726E61FF
:100770007220566563746F7220646520496473202B
:100780000A00362E204C65657220506F736520611B
:100790006C6D6163656E61646120656E20454550D6
:1007A000524F4D200A00352E20536F6272656573DB
:1007B00063726962697220506F7365200A00342E7B
:1007C0002041646963696F6E617220506F736520A8
:1007D000656E20454550524F4D200A00332E204271
:1007E0006F7272617220454550524F4D200A00329F
:1007F0002E20456E636F6E7472617220446972655B
:100800006363696F6E206465204944200A00312EBD
:10081000204C656572206C6120454550524F4D203B
:100820000A00302E20457363726962697220656E1A
:10083000206C6120454550524F4D200A00525443D0
:1008400046203D2030200A0052544346203D2031AE
:10085000200A0057454C203D2030200A0057454CC7
:10086000203D2031200A005257454C203D203020A9
:100870000A005257454C203D2031200A004F534377
:1008800046203D2030200A004F534346203D203172
:10089000200A00416C30203D2030200A00416C309D
:1008A000203D2031200A00414C31203D2030200ADB
:1008B00000414C31203D2031200A00424154203D6E
:1008C0002030200A00424154203D2031200A0031CE
:1008D0002E20506572696F646963612E200A0030B2
:1008E0002E204E6F20506572696F646963612E20FF
:1008F0000A00416C61726D6120506572696F6469B4
:1009000063612E200A0044696769746520656C2064
:1009100056616C6F7220656E20736567756E646FCB
:10092000732E20302D3539200A00312E20534920D6
:100930000A00302E204E4F200A0044657365612066
:10094000486162696C69617220656C2076616C6FC8
:1009500072206465206C6F7320736567756E646FB9
:10096000732070617261206C6120416C61726D61F5
:100970003F2E200A0044696769746520656C205623
:10098000616C6F72206465206C6F73204D696E75A9
:10099000746F732E20302D3539200A00312E2053EC
:1009A00049200A00302E204E4F200A00446573650E
:1009B0006120486162696C69617220656C207661B2
:1009C0006C6F72206465206C6F73206D696E757436
:1009D0006F732070617261206C6120416C61726D77
:1009E000613F2E200A00312E504D20200A00302E6B
:1009F000414D20200A0044696769746520656C20B8
:100A000056616C6F72206465206C6120486F726162
:100A1000200A00312E205349200A00302E204E4F4C
:100A2000200A00446573656120486162696C6961F0
:100A30007220656C2076616C6F72206465206C6139
:100A400020486F72612070617261206C6120416C7E
:100A500061726D613F2E200A0044696769746520E8
:100A6000656C204469612E20312D3331200A00311C
:100A70002E205349200A00302E204E4F200A0044D9
:100A80006573656120486162696C69617220756E89
:100A90002056616C6F722064656C2044494120705F
:100AA000617261206C6120416C61726D613F2E202A
:100AB0000A0044696769746520656C204D65732E72
:100AC00020312D3132200A00312E205349200A00D6
:100AD000302E204E4F200A00446573656120486126
:100AE00062696C69617220756E2056616C6F72204C
:100AF00064656C204D65732070617261206C6120AB
:100B0000416C61726D613F2E200A00312E205065CC
:100B100072696F646963612E200A00302E204E6F67
:100B200020506572696F646963612E200A00416C10
:100B300061726D6120506572696F646963612E2016
:100B40000A00302E20446573686162696C697461C3
:100B5000722E200A00312E20486162696C6974612E
:100B6000722E200A00486162696C697461722041CA
:100B70006C61726D612E200A00446967697465209A
:100B8000756E2056616C6F722070617261206C61AD
:100B900020636F6D70656E736163696F6E2064654D
:100BA000206C612063617061636974616E63696167
:100BB0002E200A00372E204672656375656E6369C4
:100BC0006120457374696D616461202850504D291E
:100BD000203D202D3330200A00362E2046726563DA
:100BE00075656E63696120457374696D6164612028
:100BF0002850504D29203D202D3130200A00352E1F
:100C0000204672656375656E63696120457374691A
:100C10006D616461202850504D29203D202D3230D7
:100C2000200A00332E204672656375656E63696124
:100C300020457374696D616461202850504D2920EE
:100C40003D202B3330200A00322E2046726563751A
:100C5000656E63696120457374696D616461202804
:100C600050504D29203D202B3130200A00312E20BC
:100C70004672656375656E63696120457374696D5D
:100C8000616461202850504D29203D202B323020B6
:100C90000A00302E204672656375656E63696120B7
:100CA000457374696D616461202850504D29203D61
:100CB0002030200A0044696769746520756E2056EB
:100CC000616C6F722064656C204469676974616C43
:100CD000205452696D6D696E67205265676973743F
:100CE00065722E200A00312E204C65676163792FD2
:100CF0004465666563746F2E200A00302E2053749D
:100D0000616E646172642E200A00446967697465CB
:100D1000206C6120636F6E646963696F6E20646527
:100D20002063616D62696F20656E74726520564440
:100D30004420792042617474657279204261636B4A
:100D400075702E200A00312E204465736861626937
:100D50006C697461722E200A00302E20486162692D
:100D60006C697461722E200A004469676974652099
:100D7000736920486162696C6974617261206C6199
:100D800020496E746572666163652053657269619E
:100D90006C20656E204D6F646F2064652042617425
:100DA00074657279204261636B75702E200A00367B
:100DB0002E2053616261646F200A00352E2056692F
:100DC00065726E6573200A00342E204A756576655B
:100DD00073200A00332E204D696572636F6C657352
:100DE000200A00322E204D6172746573200A003192
:100DF0002E204C756E6573200A00302E20446F6DD6
:100E0000696E676F200A0044696769746520656CC4
:100E100020646961206465206C612053656D616E9A
:100E2000612E200A0044696769746520656C204161
:100E30006E6F2E20302D3939200A0044696769749D
:100E40006520656C204D65732E20312D3132200ACE
:100E50000044696769746520656C204469612E20CF
:100E6000312D3331200A00312E504D20200A003020
:100E70002E414D20200A0044696769746520656C25
:100E80002056616C6F72206465206C6120486F721F
:100E90006120200A0044696769746520656C2056EA
:100EA000616C6F7220656E204D696E75746F732E64
:100EB00020302D3539200A00446967697465206542
:100EC0006C2056616C6F7220656E20536567756E7D
:100ED000646F732E20302D3539200A004F747261F3
:100EE000204F7063696F6E3A2053616C69722053B2
:100EF00075624D656E75200A00352E204C65657251
:100F000020656C20436F6E74726F6C206465205294
:100F10006567697374726F732064656C2052544303
:100F2000200A00342E204C65657220456C205374D5
:100F300061747573205265676973746572206465A6
:100F40006C20525443200A00332E204C65657220D9
:100F50004665636861200A00322E20436F6E666921
:100F6000677572617220416C61726D61200A003197
:100F70002E20457363726962697220656E20656C0C
:100F800020436F6E74726F6C2064652052656769D0
:100F90007374726F732064656C20525443200A008E
:100FA000302E2045736372696269722046656368FA
:100FB00061200A0044696769746520656C20766168
:100FC0006C6F722064656C2054726967676572206B
:100FD0000A0031302E5369676E616C537461747509
:100FE000732E200A00392E20416374697669747962
:100FF0005374617475732E200A00382E204576656F
:101000006E745374617475732E200A00372E205449
:10101000696D652E200A00362E2041637475616C5F
:10102000506F736974696F6E43726F737365642E6A
:10103000200A00352E20436F6D6D616E646564502B
:101040006F736974696F6E43726F737365642E207A
:101050000A00342E204C65737365724F72457175AA
:10106000616C41637475616C506F736974696F6E04
:101070002E200A00332E20477265617465724F720C
:10108000457175616C41637475616C506F736974FF
:10109000696F6E2E200A00322E204C6573736572C4
:1010A0004F72457175616C436F6D6D616E646564FF
:1010B000506F736974696F6E2E200A00312E2047BD
:1010C0007265617465724F72457175616C436F6DC5
:1010D0006D616E646564506F736974696F6E2E2004
:1010E0000A00302E204E696E67756E6F2E200A0042
:1010F00044696769746520656C20545249474745C7
:10110000522064656C20427265616B506F696E7429
:10111000200A00342E4D6F746F725F4F46462E20AA
:101120000A00332E20536D6F6F746853746F702EE6
:10113000200A00322E2041627275707453746F70F1
:101140002E200A00312E205570646174652E200A0D
:1011500000302E4E696E67756E6120416363696F62
:101160006E2E200A00446967697465206C612061F5
:101170006363696F6E2064656C20427265616B50B9
:101180006F696E74200A00342E526F6C6C2E200A28
:1011900000332E2050697463682E200A00322E20FE
:1011A000436F646F2E200A00312E20486F6D6272EB
:1011B0006F2E200A00302E2043696E747572612EE6
:1011C000200A0044696769746520656C20456A657A
:1011D000204675656E74652028736F757263652986
:1011E0002064656C20427265616B506F696E74207B
:1011F0000A00312E20427265616B506F696E743245
:101200002E200A00302E20427265616B506F696E8D
:1012100074312E200A0044696769746520656C206A
:1012200020427265616B506F696E745F4944200A99
:1012300000342E526F6C6C2E200A00332E20506921
:101240007463682E200A00322E20436F646F2E20B4
:101250000A00312E20486F6D62726F2E200A003016
:101260002E2043696E747572612E200A00446967EE
:1012700069746520656C20656A6520656C206375FE
:10128000616C20636F6E666967757261726120655B
:101290006C20427265616B506F696E74200A003475
:1012A0002E526F6C6C2E200A00332E20506974630E
:1012B000682E200A00322E20436F646F2E200A0011
:1012C000312E20486F6D62726F2E200A00302E2062
:1012D00043696E747572612E200A004469676974EF
:1012E00065206C61206172746963756C6163696FFC
:1012F0006E206120636F6E66696775726172200A85
:10130000004F747261204F7063696F6E3A205361B1
:101310006C6972205375624D656E75200A00322E1D
:1013200020436F6E666967757261722042726561F3
:101330006B506F696E74200A00312E2048616C6C0E
:101340006172204E6573742079206D617820792058
:101350006D696E20706F736963696F6E200A00306B
:101360002E205265616C697A61722050726F6365DC
:10137000736F2064652043616C6962726163696F99
:101380006E200A0044696769746520656C20766187
:101390006C6F72206465206C6120706F7369636983
:1013A0006F6E206120616A7573746172200A003467
:1013B0002E526F6C6C2E200A00332E2050697463FD
:1013C000682E200A00322E20436F646F2E200A0000
:1013D000312E20486F6D62726F2E200A00302E2051
:1013E00043696E747572612E200A004469676974DE
:1013F00065206C61206172746963756C6163696FEB
:101400006E2071756520717569657265204C656522
:1014100072206F20416A75737461720A004F747292
:1014200061204F7063696F6E3A2053616C6972205E
:101430005375624D656E75200A00342E20416A7521
:101440007374617220506F736963696F6E200A0054
:10145000332E205369676E616C2053746174757309
:10146000200A00322E204C65637475726120646519
:101470006C20416374697669747920537461747562
:1014800073205265676973746572200A00312E20DB
:101490004C6563747572612064656C204576656E79
:1014A0007420537461747573205265676973746531
:1014B00072200A00302E20496E666F726D6163697A
:1014C0006F6E204D6F76696D69656E746F0A0044AA
:1014D0006967697465206163656C65726163696FD2
:1014E0006E3F200A004469676974652056656C6F19
:1014F00063696461643F200A004469676974652018
:10150000506F736963696F6E3F200A004F74726198
:10151000204F7063696F6E3A2053616C697220537B
:1015200075624D656E75200A00342E526F6C6C2EFC
:10153000200A00332E2050697463682E200A00327E
:101540002E20436F646F2E200A00312E20486F6DCD
:1015500062726F2E200A00302E2043696E747572FD
:10156000612E200A004469676974652041727469BC
:1015700063756C6163696F6E2061206D6F76657253
:10158000200A004F747261204F7063696F6E3A20B9
:10159000506172616461205375617665200A00387C
:1015A0002E46756E63696F6E65732070617261207F
:1015B0004445425547200A00372E46756E63696FD1
:1015C0006E65732064652047726970706572200AC9
:1015D00000362E5265736574204576656E7420530F
:1015E0007461747573205265676973746572200A3B
:1015F00000352E46756E63696F6E657320646520D5
:101600005472617A6F206520496D70726573696FDD
:101610006E206465205661726961626C6573200A90
:1016200000342E46756E63696F6E657320646520A5
:101630004D616E656A6F20446520454550524F4D9F
:101640000A00332E46756E63696F6E65732064659C
:101650006C2052656C6F6A206465205469656D70FA
:101660006F205265616C200A00322E46756E6369E8
:101670006F6E65732064652043616C69627261639B
:10168000696F6E2D416A757374652D427265616B69
:10169000706F696E740A00312E46756E63696F6EE5
:1016A000657320646520696E666F726D6163696F32
:1016B0006E206465204D6F76696D69656E746F0A82
:1016C00000302E46756E63696F6E65732064652009
:1016D0004D6F76696D69656E746F0A005465736944
:1016E0007320646520477261646F204A4152424F03
:1016F0005445522056322E312E200A200A002F6ED9
:10170000202F6E2050524F4752414D4120444520DA
:10171000505255454241532059204445505552415D
:1017200043494F4E202E0A00417061677565206560
:101730006C20636F6E74726F6C61646F72200A004C
:101740004572726F7220656E20656C20436F6E74F7
:10175000726F6C61646F72206465206D6F746F725C
:101760006573204E6F2E2032200A004572726F7210
:1017700020656E20436F6E74726F6C61646F7220AF
:1017800032200A004572726F7220656E20656C20EF
:10179000436F6E74726F6C61646F72206465206D4C
:1017A0006F746F726573204E6F2E2031200A0045D2
:1017B00072726F7220656E20436F6E74726F6C610F
:1017C000646F722031200A004361626C652023320D
:1017D0002064652073656E736F7265732064657332
:1017E000636F6E65637461646F200A004361626CAD
:1017F000652023312064652073656E736F72657395
:1018000020646573636F6E65637461646F200A00A2
:10181000426F746F6E206465205061726164612054
:10182000646520456D657267656E6369612041631B
:101830007469766F200A004572726F7220646520A9
:10184000496E737472756363696F6E200A00204578
:1018500072726F72206465204D6F76696D69656E76
:10186000746F200A006E616E00696E6600636469C1
:101870006E6F70737578585B6566674546470061A3
:101880006E006E66696E69747900CDCCCC3D0AD766
:10189000233C17B7D13877CC2B329595E6241FB16E
:1018A0004F0A000020410000C84200401C4620BCF6
:1018B000BE4CCA1B0E5AAEC59D7400407A10F35A36
:1018C00000A0724E18090010A5D4E80000E8764880
:1018D000170000E40B54020000CA9A3B000000E12C
:1018E000F505000080969800000040420F000000BF
:1018F000A08601000000102700000000E80300009F
:1019000000006400000000000A0000000000010068
:10191000000000002C76D888DC674F0823DFC1DF89
:10192000AE59E1B1B796E5E3E453C63AE65199768C
:1019300096E8E6C28426EB898C9B62ED407C6FFCC6
:10194000EFBC9C9F40F2BAA56FA5F490055A2AF708
:101950005C936B6CF9676DC11BFCE0E40D47FEF511
:1019600020E6B500D0ED902E030094357705008079
:10197000841E080000204E0A000000C80C333333D8
:10198000330F986E12831141EF8D2114893BE65578
:1019900016CFFEE6DB18D1844B381BF77C1D901D5B
:1019A000A4BBE424203284725E228100C9F124ECBD
:1019B000A1E53D2711241FBECFEFD1E2DEBFCDBF91
:1019C0008CE8809374001092750014E7A0E0B2E2F6
:1019D000ECEBF1E401E00BBF02C007900D92AA3AD4
:1019E000B107D9F719E7AAEAB4E701C01D92A43DEF
:1019F000B107E1F70E94000D0C94DCA00C940000EC
:101A00002F923F924F925F926F927F928F929F920E
:101A1000AF92BF92CF92DF92EF92FF920F931F93FC
:101A2000DF93CF93CDB7DEB7C559D0400FB6F8944A
:101A3000DEBF0FBECDBFDE01AB5ABF4FE9EBF6E212
:101A400084E101900D928150E1F70E94BA3B0E941F
:101A500075840E9419860E9453898DE996E29093BD
:101A6000CF798093CE799093D1798093D0798BEA96
:101A700096E29093D3798093D27982E00E94A78DE9
:101A80000E94378D80E00E94A78D0E94378D81E0F3
:101A90000E94A78D0E94378D81E090E00E94B98D51
:101AA00080E090E00E94B98D82E090E00E94B98DC4
:101AB0000E94EE44892BE1F000D000D08091D279D1
:101AC0009091D379ADB7BEB712969C938E93119730
:101AD00088E297E114969C938E9313970E94549FEB
:101AE0000F900F900F900F9080E090E00E94DCA08C
:101AF00080E00E946D420E94D2480E94926B0E9438
:101B0000E55E8FEF8CBB0E94EF7578946091D2797F
:101B10007091D37980E092E20E949E9F0E943E41A4
:101B20000E94654188EE93E028EC30E0F90131979E
:101B3000F1F70197D9F70E946541E7E6F8E7CC563F
:101B4000DF4FF983E883C459D04000D000D08091A2
:101B5000D0799091D179ADB7BEB712969C938E9300
:101B60001197EEEFF6E11496FC93EE9313970E9413
:101B7000549F8091D0799091D179ADB7BEB712962C
:101B80009C938E931197ECEDF6E11496FC93EE93F3
:101B900013970E94549F8091D0799091D179ADB7DD
:101BA000BEB712969C938E931197E1ECF6E11496D2
:101BB000FC93EE9313970E94549F8091D07990915B
:101BC000D179ADB7BEB712969C938E931197E7E982
:101BD000F6E11496FC93EE9313970E94549F809124
:101BE000D0799091D179ADB7BEB712969C938E9370
:101BF0001197E9E6F6E11496FC93EE9313970E9491
:101C0000549F8091D0799091D179ADB7BEB712969B
:101C10009C938E931197E2E4F6E11496FC93EE9375
:101C200013970E94549F8091D0799091D179ADB74C
:101C3000BEB712969C938E931197E1E2F6E114964B
:101C4000FC93EE9313970E94549F8091D0799091CA
:101C5000D179ADB7BEB712969C938E931197E1EFF1
:101C6000F5E11496FC93EE9313970E94549F809194
:101C7000D0799091D179ADB7BEB712969C938E93DF
:101C80001197E1EDF5E11496FC93EE9313970E9402
:101C9000549F8091D0799091D179ADB7BEB712960B
:101CA0009C938E931197E8EBF5E11496FC93EE93D9
:101CB00013970E94549F8091D0799091D179ADB7BC
:101CC000BEB712969C938E931197EFE9F5E11496A7
:101CD000FC93EE9313970E94549F8091D07990913A
:101CE000D179ADB7BEB712969C938E931197E3E866
:101CF000F5E11496FC93EE9313970E94549FECE148
:101D0000F2E2ADB7BEB71296FC93EE931197CE01F7
:101D1000019614969C938E9313970E9417A00F9090
:101D20000F900F900F9089819A818430910511F462
:101D30000C94892085309105A4F48130910509F433
:101D400082C18230910524F4892B01F10C940A2779
:101D50008230910509F40FC4039711F00C940A27FF
:101D6000B2C78630910511F40C9497258630910501
:101D700014F40C94C2248730910511F40C949B2523
:101D8000089711F00C940A270C94F02500D000D08D
:101D90008091D0799091D179ADB7BEB712969C93CE
:101DA0008E93119785E695E114969C938E931397E5
:101DB0000E94549F8091D0799091D179EDB7FEB770
:101DC0009283818387E595E1948383830E94549F66
:101DD0008091D0799091D179ADB7BEB712969C938E
:101DE0008E9311978AE495E114969C938E931397A2
:101DF0000E94549F8091D0799091D179EDB7FEB730
:101E0000928381838FE395E1948383830E94549F1F
:101E10008091D0799091D179ADB7BEB712969C934D
:101E20008E93119783E395E114969C938E93139769
:101E30000E94549F8091D0799091D179EDB7FEB7EF
:101E40009283818389E295E1948383830E94549FE6
:101E50008091D0799091D179ADB7BEB712969C930D
:101E60008E9311978CE095E114969C938E93139723
:101E70000E94549F2CE132E2EDB7FEB732832183FA
:101E8000CE010396948383830E9417A00F900F9036
:101E90000F900F908B819C81059708F05CC000D05B
:101EA00000D08091D0799091D179ADB7BEB712961C
:101EB0009C938E93119789EF94E114969C938E9343
:101EC00013970E94549F0FE112E2EDB7FEB7128301
:101ED0000183CE014D96948383830E9417A0809145
:101EE000D0799091D179ADB7BEB712969C938E936D
:101EF000119785EE94E114969C938E9313970E940C
:101F0000549FEDB7FEB712830183CE01819694836F
:101F100083830E9417A08091D0799091D179ADB739
:101F2000BEB712969C938E9311978FEC94E1149602
:101F30009C938E9313970E94549FEDB7FEB7128324
:101F40000183CE018596948383830E9417A00F900E
:101F50000F900F900F908B819C8182309105A1F1A1
:101F60008330910534F4009759F0019709F066C069
:101F700016C083309105B9F1049709F05FC049C0DC
:101F80004D8D5E8D6F8D78A109A11AA12BA13CA169
:101F9000CDA0DEA0EFA0F8A480E090E00EC04D8DB3
:101FA0005E8D6F8D78A109A11AA12BA13CA1CDA0B6
:101FB000DEA0EFA0F8A481E090E0E0EFAE2EEFEF1E
:101FC000BE2E0E94734E3AC04D8D5E8D6F8D78A1EE
:101FD00009A11AA12BA13CA1CDA0DEA0EFA0F8A4DD
:101FE00082E090E0EACF6D8D7E8D8F8D98A129A142
:101FF0003AA14BA15CA1EDA0FEA00FA118A5B0EFE6
:10200000CB2EBFEFDB2EA1E0AA2EB12C0E9478527E
:1020100015C06D8D7E8D8F8D98A129A13AA14BA100
:102020005CA1EDA0FEA00FA118A5F0EFCF2EFFEF51
:10203000DF2EE1E0AE2EB12C0E941B508B819C81E3
:102040000E94304D82CD00D000D08091D079909107
:10205000D179ADB7BEB712969C938E93119784EB4E
:1020600094E114969C938E9313970E94549F8091B1
:10207000D0799091D179EDB7FEB7928381838DE8C5
:1020800094E1948383830E94549F8091D0799091AE
:10209000D179ADB7BEB712969C938E93119783E614
:1020A00094E114969C938E9313970E94549F809171
:1020B000D0799091D179EDB7FEB79283818380E595
:1020C00094E1948383830E94549F8091D07990916E
:1020D000D179ADB7BEB712969C938E9311978AE3D0
:1020E00094E114969C938E9313970E94549F809131
:1020F000D0799091D179EDB7FEB7928381838DE14C
:1021000094E1948383830E94549FECE1F2E2ADB7A3
:10211000BEB71296FC93EE931197CE0105961496D6
:102120009C938E9313970E9417A00F900F900F907F
:102130000F908D819E81059708F076C000D000D069
:102140008091D0799091D179ADB7BEB712969C931A
:102150008E9311978BEE93E114969C938E93139725
:102160000E94549F8091D0799091D179EDB7FEB7BC
:10217000928381838DED93E1948383830E94549FA6
:102180008091D0799091D179ADB7BEB712969C93DA
:102190008E93119780ED93E114969C938E931397F1
:1021A0000E94549F8091D0799091D179EDB7FEB77C
:1021B0009283818385EC93E1948383830E94549F6F
:1021C0008091D0799091D179ADB7BEB712969C939A
:1021D0008E93119789EB93E114969C938E931397AA
:1021E0000E94549F8091D0799091D179EDB7FEB73C
:1021F000928381838FEA93E1948383830E94549F27
:10220000ECE1F2E2ADB7BEB71296FC93EE931197F4
:10221000CE01039614969C938E9313970E9417A059
:102220000F900F900F900F908D819E8182309105BD
:1022300009F464C18330910534F4009761F001978B
:1022400009F083CC3EC18330910509F45EC1049747
:1022500009F07BCC61C100D000D000D0EDB7FEB753
:1022600031968B819C8105E4602E712C6C0E7D1E55
:1022700019E4412E512C4C0E5D1EBDE32B2E312C4A
:102280002C0E3D1E21E430E02C0F3D1FADB7BEB734
:1022900012963C932E9311979E01275F3F4F3383F5
:1022A00022839E01255F3F4F35832483BE01675DF6
:1022B0007F4FAE01435D5F4F93018201A1E3EA2EA0
:1022C000F12CEC0EFD1EF5E3CF2ED12CCC0EDD1E35
:1022D000E9E3AE2EB12CAC0EBD1E41010E94056D8E
:1022E0008DB79EB706960FB6F8949EBF0FBE8DBFF2
:1022F0008B819C810E949D3600D000D023E232E287
:10230000ADB7BEB712963C932E93119714969C933B
:102310008E9313970E94C99F00D082E692E2EDB798
:10232000FEB79283818389A59AA5ABA5BCA58383BB
:102330009483A583B6830E94C99F83E792E2ADB7D9
:10234000BEB712969C938E9311978DA59EA5AFA5AF
:10235000B8A9EDB7FEB783839483A583B6830E94A3
:10236000C99F87E892E2ADB7BEB712969C938E9351
:102370001197F30180819181A281B381EDB7FEB7FE
:1023800083839483A583B6830E94C99F8BE992E2DD
:10239000ADB7BEB712969C938E931197F2018081D0
:1023A0009181A281B381EDB7FEB783839483A58326
:1023B000B6830E94C99F82EB92E2ADB7BEB7129678
:1023C0009C938E93119789A99AA9ABA9BCA9EDB743
:1023D000FEB783839483A583B6830E94C99F8FEC45
:1023E00092E2ADB7BEB712969C938E9311978DA9CA
:1023F0009EA9AFA9B8ADEDB7FEB783839483A5833B
:10240000B6830E94C99F8DEE92E2ADB7BEB7129619
:102410009C938E93119789AD9AADABADBCADEDB7E2
:10242000FEB783839483A583B6830E94C99F8DE002
:1024300093E2ADB7BEB712969C938E931197F101BC
:1024400080819181A281B381EDB7FEB783839483AC
:10245000A583B6830E94C99F85E293E2ADB7BEB75C
:1024600012969C938E93119725968CAD9DADAEAD33
:10247000BFAD2597EDB7FEB783839483A583B6835D
:102480000E94C99F0F900F908CE393E2ADB7BEB747
:1024900012969C938E93119789859A8514969C9396
:1024A0008E9313970E94C99F87E593E2EDB7FEB71D
:1024B000928381838B859C85948383830E94C99FAB
:1024C00008C08B819C816EEE7FEF0E94BF7000D0B0
:1024D00000D0ECE1F2E2ADB7BEB71296FC93EE93FA
:1024E0001197CE01079614969C938E9313970E9492
:1024F00017A00F900F900F900F9027CB8B819C818E
:102500006EEE7FEF0E94646FE2CF8B819C816EEE56
:102510007FEF0E94376EDBCF00D000D08091D07962
:102520009091D179ADB7BEB712969C938E931197C7
:1025300084E893E114969C938E9313970E94549F82
:102540002CE132E2EDB7FEB732832183CE010D9646
:10255000948383830E9417A00F900F900F900F9089
:102560004D855E85662757FD6095762F8B819C8112
:102570000E942F41EACA00D000D08091D07990917A
:10258000D179ADB7BEB712969C938E9311978FE514
:1025900093E114969C938E9313970E94549F80917D
:1025A000D0799091D179EDB7FEB79283818389E399
:1025B00093E1948383830E94549F8091D07990917A
:1025C000D179ADB7BEB712969C938E9311978EE1D9
:1025D00093E114969C938E9313970E94549F80913D
:1025E000D0799091D179EDB7FEB79283818381E064
:1025F00093E1948383830E94549FECE1F2E2ADB7B0
:10260000BEB71296FC93EE931197CE0105961496E1
:102610009C938E9313970E9417A00F900F900F908A
:102620000F908D819E81029708F076C000D000D077
:102630008091D0799091D179ADB7BEB712969C9325
:102640008E9311978BED92E114969C938E93139732
:102650000E94549F8091D0799091D179EDB7FEB7C7
:10266000928381838DEC92E1948383830E94549FB3
:102670008091D0799091D179ADB7BEB712969C93E5
:102680008E93119780EC92E114969C938E931397FE
:102690000E94549F8091D0799091D179EDB7FEB787
:1026A0009283818385EB92E1948383830E94549F7C
:1026B0008091D0799091D179ADB7BEB712969C93A5
:1026C0008E93119789EA92E114969C938E931397B7
:1026D0000E94549F8091D0799091D179EDB7FEB747
:1026E000928381838FE992E1948383830E94549F34
:1026F000ECE1F2E2ADB7BEB71296FC93EE93119700
:10270000CE01039614969C938E9313970E9417A064
:102710000F900F900F900F908D819E8181309105C9
:10272000A9F182309105B9F1892B09F00ECA8B818C
:102730009C810E9480537B018C018B819C810E9433
:102740009D362DB73EB7285030400FB6F8943EBFA7
:102750000FBE2DBFEDB7FEB7319625E733E2ADB71B
:10276000BEB712963C932E93119793838283E48293
:10277000F582068317830E94C99FEDB7FEB738968E
:102780000FB6F894FEBF0FBEEDBFDFC98B819C81F1
:102790000E947D65DAC900D000D08091D0799091F7
:1027A000D179ADB7BEB712969C938E9311978DE6F3
:1027B00092E114969C938E9313970E94549F80915C
:1027C000D0799091D179EDB7FEB7928381838FE56F
:1027D00092E1948383830E94549F8091D079909159
:1027E000D179ADB7BEB712969C938E93119782E5BF
:1027F00092E114969C938E9313970E94549F80911C
:10280000D0799091D179EDB7FEB79283818387E437
:1028100092E1948383830E94549F8091D079909118
:10282000D179ADB7BEB712969C938E9311978BE377
:1028300092E114969C938E9313970E94549F8091DB
:10284000D0799091D179EDB7FEB79283818381E3FE
:1028500092E1948383830E94549FECE1F2E2ADB74E
:10286000BEB71296FC93EE931197CE010F96149675
:102870009C938E9313970E9417A08091D07990918A
:10288000D179ADB7BEB712969C938E93119786E11E
:1028900092E114969C938E9313970E94549F80917B
:1028A000D0799091D179EDB7FEB79283818384E09E
:1028B00092E1948383830E94549F8091D079909178
:1028C000D179ADB7BEB712969C938E93119782EFD4
:1028D00091E114969C938E9313970E94549F2CE140
:1028E00032E2EDB7FEB732832183CE014196948365
:1028F00083830E9417A08091D0799091D179ADB750
:10290000BEB712969C938E93119783EC91E1149627
:102910009C938E9313970E94549F8091D0799091AD
:10292000D179EDB7FEB79283818385EB91E19483F2
:1029300083830E94549F8091D0799091D179ADB7D3
:10294000BEB712969C938E93119788EA91E11496E4
:102950009C938E9313970E94549F8091D07990916D
:10296000D179EDB7FEB7928381838DE991E19483AC
:1029700083830E94549F8091D0799091D179ADB793
:10298000BEB712969C938E93119781E991E11496AC
:102990009C938E9313970E94549F8091D07990912D
:1029A000D179EDB7FEB79283818387E891E1948373
:1029B00083830E94549FECE1F2E2ADB7BEB712965A
:1029C000FC93EE931197CE01439614969C938E93AD
:1029D00013970E9417A08091D0799091D179ADB7CB
:1029E000BEB712969C938E93119785E691E114964B
:1029F0009C938E9313970E94549F8091D0799091CD
:102A0000D179EDB7FEB79283818381E591E194831B
:102A100083830E94549F8091D0799091D179ADB7F2
:102A2000BEB712969C938E93119784E491E114960D
:102A30009C938E9313970E94549F8091D07990918C
:102A4000D179EDB7FEB79283818383E391E19483DB
:102A500083830E94549F8091D0799091D179ADB7B2
:102A6000BEB712969C938E93119782E291E11496D1
:102A70009C938E9313970E94549F8091D07990914C
:102A8000D179EDB7FEB79283818383E191E194839D
:102A900083830E94549FECE1F2E2ADB7BEB7129679
:102AA000FC93EE931197CE01459614969C938E93CA
:102AB00013970E9417A08091D0799091D179ADB7EA
:102AC000BEB712969C938E93119780EF90E1149667
:102AD0009C938E9313970E94549F8091D0799091EC
:102AE000D179EDB7FEB79283818382EE90E1948332
:102AF00083830E94549F8091D0799091D179ADB712
:102B0000BEB712969C938E9311978CEB90E114961E
:102B10009C938E9313970E94549F8091D0799091AB
:102B2000D179EDB7FEB79283818387E990E19483F1
:102B300083830E94549F8091D0799091D179ADB7D1
:102B4000BEB712969C938E93119784E790E11496EA
:102B50009C938E9313970E94549F8091D07990916B
:102B6000D179EDB7FEB79283818382E590E19483BA
:102B700083830E94549F8091D0799091D179ADB791
:102B8000BEB712969C938E93119783E390E11496AF
:102B90009C938E9313970E94549F8091D07990912B
:102BA000D179EDB7FEB79283818387E190E1948379
:102BB00083830E94549F8091D0799091D179ADB751
:102BC000BEB712969C938E9311978CE090E1149669
:102BD0009C938E9313970E94549F8091D0799091EB
:102BE000D179EDB7FEB7928381838AEF9FE094831A
:102BF00083830E94549F8091D0799091D179ADB711
:102C0000BEB712969C938E93119785EE9FE0149613
:102C10009C938E9313970E94549F8091D0799091AA
:102C2000D179EDB7FEB79283818382ED9FE09483E3
:102C300083830E94549FECE1F2E2ADB7BEB71296D7
:102C4000FC93EE931197CE01479614969C938E9326
:102C500013970E9417A08091D0799091D179ADB748
:102C6000BEB712969C938E93119784EB9FE01496B7
:102C70009C938E9313970E94549F8FE192E2EDB73D
:102C8000FEB7928381834DE4E42EF12CEC0EFD1E01
:102C9000F482E3820E9417A00F900F900F900F9084
:102CA00069897A894B895C892D893E890F89188DBC
:102CB000D701CD90DD90ED90FC908F8598890E9492
:102CC000EC400C94A50D00D000D08091D07990916B
:102CD000D179EDB7FEB79283818380EA9FE0948338
:102CE00083830E94549F8091D0799091D179ADB720
:102CF000BEB712969C938E9311978FE69FE0149621
:102D00009C938E9313970E94549F8091D0799091B9
:102D1000D179EDB7FEB79283818388E59FE09483F4
:102D200083830E94549F8091D0799091D179ADB7DF
:102D3000BEB712969C938E93119788E49FE01496E9
:102D40009C938E9313970E94549F8091D079909179
:102D5000D179EDB7FEB79283818383E29FE09483BC
:102D600083830E94549F8091D0799091D179ADB79F
:102D7000BEB712969C938E93119789EF9EE014969E
:102D80009C938E9313970E94549F8091D079909139
:102D9000D179EDB7FEB7928381838CED9EE0948369
:102DA00083830E94549FECE1F2E2ADB7BEB7129666
:102DB000FC93EE931197CE01059614969C938E93F7
:102DC00013970E9417A00F900F900F900F908D8176
:102DD0009E818230910509F4B1C3833091053CF4A2
:102DE0000097A1F0019711F00C94A50DBBC18430A0
:102DF000910511F40C94F21E843091050CF47FC7F8
:102E0000059711F00C94A50D0C94312080E280936D
:102E10006E7800D000D08091D0799091D179ADB703
:102E2000BEB712969C938E93119788EB9EE01496F2
:102E30009C938E9313970E94549F0BEA13E2EDB775
:102E4000FEB712830183CC56DF4F28813981C459E4
:102E5000D040348323830E9417A08091D079909131
:102E6000D179ADB7BEB712969C938E93119785E931
:102E70009EE014969C938E9313970E94549FEDB7F7
:102E8000FEB71283018328E638E7348323830E9448
:102E900017A08091D0799091D179ADB7BEB7129635
:102EA0009C938E93119787E79EE014969C938E9344
:102EB00013970E94549FEDB7FEB712830183CC563F
:102EC000DF4F28813981C459D0402E5F3F4F348372
:102ED000238322503040CC56DF4F39832883C45996
:102EE000D0400E9417A08091D0799091D179ADB750
:102EF000BEB712969C938E9311978FE69EE0149620
:102F00009C938E9313970E94549F8091D0799091B7
:102F1000D179EDB7FEB79283818387E69EE09483F3
:102F200083830E94549FECE1F2E2ADB7BEB71296E4
:102F3000FC93EE93119787E195E714969C938E93FB
:102F400013970E9417A00F900F900F900F908091F1
:102F5000177590911875019729F4809169788062AE
:102F60008093697800D000D08091D0799091D17908
:102F7000ADB7BEB712969C938E93119781E59EE0F4
:102F800014969C938E9313970E94549F0BEA13E21E
:102F9000EDB7FEB7128301832AE638E73483238333
:102FA0000E9417A08091D0799091D179ADB7BEB72A
:102FB00012969C938E9311978BE39EE014969C93AC
:102FC0008E9313970E94549FEDB7FEB7128301832F
:102FD0002BE638E7348323830E9417A08091D079B1
:102FE0009091D179ADB7BEB712969C938E931197FD
:102FF00085E29EE014969C938E9313970E94549FB3
:10300000EDB7FEB7128301838AE698E702969483B0
:1030100083830E9417A08091D0799091D179ADB728
:10302000BEB712969C938E93119787E09EE01496FC
:103030009C938E9313970E94549F8091D079909186
:10304000D179EDB7FEB7928381838AEF9DE09483B7
:1030500083830E94549F8091D0799091D179ADB7AC
:10306000BEB712969C938E9311978FEE9DE01496A7
:103070009C938E9313970E94549F8091D079909146
:10308000D179EDB7FEB79283818383EE9DE094837F
:1030900083830E94549F8091D0799091D179ADB76C
:1030A000BEB712969C938E93119784ED9DE0149673
:1030B0009C938E9313970E94549F8091D079909106
:1030C000D179EDB7FEB79283818388EC9DE094833C
:1030D00083830E94549F8091D0799091D179ADB72C
:1030E000BEB712969C938E9311978BEB9DE014962E
:1030F0009C938E9313970E94549F8091D0799091C6
:10310000D179EDB7FEB7928381838FEA9DE09483F6
:1031100083830E94549FADB7BEB712961C930E9343
:1031200011978AE698E7039614969C938E931397CB
:103130000E9417A00F900F900F900F90209167782A
:10314000309168784091697850916A7860916B7895
:1031500070916C7880916D7890916E780E947089F2
:103160000C94A50D00D000D08091D0799091D179A8
:10317000EDB7FEB79283818389E69DE094838383D4
:103180000E94549F8091D0799091D179ADB7BEB70C
:1031900012969C938E93119789E59DE014969C93CB
:1031A0008E9313970E94549F8091D0799091D179FA
:1031B000EDB7FEB79283818386E49DE09483838399
:1031C0000E94549FECE1F2E2ADB7BEB71296FC93B9
:1031D000EE9311978EE598E714969C938E93139730
:1031E0000E9417A08091D0799091D179ADB7BEB7E8
:1031F00012969C938E9311978AE09DE014969C936F
:103200008E9313970E94549F8091D0799091D17999
:10321000EDB7FEB7928381838BEF9CE09483838329
:103220000E94549F8091D0799091D179ADB7BEB76B
:1032300012969C938E93119786EE9CE014969C9325
:103240008E9313970E94549F2CE132E2EDB7FEB7A4
:10325000328321838FE498E7948383830E9417A0AD
:103260008091D0799091D179ADB7BEB712969C93E9
:103270008E93119785EB9CE014969C938E931397F5
:103280000E94549F8091D0799091D179EDB7FEB78B
:103290009283818382E99CE0948383830E94549F7C
:1032A0008091D0799091D179ADB7BEB712969C93A9
:1032B0008E9311978DE69CE014969C938E931397B2
:1032C0000E94549F8091D0799091D179EDB7FEB74B
:1032D0009283818388E49CE0948383830E94549F3B
:1032E0008091D0799091D179ADB7BEB712969C9369
:1032F0008E93119783E29CE014969C938E93139780
:103300000E94549F8091D0799091D179EDB7FEB70A
:10331000928381838EEF9BE0948383830E94549FEA
:103320008091D0799091D179ADB7BEB712969C9328
:103330008E93119789ED9BE014969C938E9313972F
:103340000E94549F8091D0799091D179EDB7FEB7CA
:103350009283818384EB9BE0948383830E94549FB8
:103360008BEA93E2ADB7BEB712969C938E931197FA
:103370008DE498E714969C938E9313970E9417A060
:103380008091D0799091D179EDB7FEB79283818306
:1033900089E79BE0948383830E94549FECE1F2E2EF
:1033A000ADB7BEB71296FC93EE93119785E195E702
:1033B00014969C938E9313970E9417A08091D079B6
:1033C0009091D179ADB7BEB712969C938E93119719
:1033D00085E69BE014969C938E9313970E94549FCE
:1033E0008091D0799091D179EDB7FEB792838183A6
:1033F00085E59BE0948383830E94549F8091D079DC
:103400009091D179ADB7BEB712969C938E931197D8
:1034100082E49BE014969C938E9313970E94549F92
:103420002CE132E2EDB7FEB73283218381E598E7E4
:10343000948383830E9417A08091D0799091D17951
:10344000ADB7BEB712969C938E9311978EE29BE018
:1034500014969C938E9313970E94549F8091D079D9
:103460009091D179EDB7FEB7928381838BE19BE098
:10347000948383830E94549F8091D0799091D179D5
:10348000ADB7BEB712969C938E9311978BE09BE0DD
:1034900014969C938E9313970E94549F2CE132E2D2
:1034A000EDB7FEB73283218388E598E79483838361
:1034B0000E9417A00F900F900F900F9080915E7850
:1034C00090915F78892B11F420E001C020E8809171
:1034D0004F7890915078892B11F480E001C080E4FE
:1034E000822B8093127580914D7880931175809115
:1034F0001575809310758091517890915278892B31
:1035000011F420E001C020E2809158789091597820
:10351000892B11F450E001C050E8522B50930F75E5
:1035200088E180930E7548E1609110757091117576
:10353000809112750E9422890C94A50D00D000D0B4
:103540008091D0799091D179ADB7BEB712969C9306
:103550008E93119788ED9AE014969C938E9313970F
:103560000E94549F8091D0799091D179EDB7FEB7A8
:103570009283818380ED9AE0948383830E94549F99
:103580008091D0799091D179ADB7BEB712969C93C6
:103590008E93119788EC9AE014969C938E931397D0
:1035A0000E94549F2CE132E2EDB7FEB732832183B3
:1035B00087E195E7948383830E9417A00F900F9073
:1035C0000F900F908091177590911875019751F594
:1035D00000D000D08091D0799091D179ADB7BEB7AD
:1035E00012969C938E93119782EB9AE014969C937B
:1035F0008E9313970E94549F8BEA93E2EDB7FEB728
:103600009283818383E598E7948383830E9417A044
:10361000809153788068809364780F900F900F901A
:103620000F9002C01092647800D000D08091D079C1
:103630009091D179ADB7BEB712969C938E931197A6
:103640008FE79AE014969C938E9313970E94549F51
:103650008091D0799091D179EDB7FEB79283818333
:1036600087E79AE0948383830E94549F8091D07966
:103670009091D179ADB7BEB712969C938E93119766
:103680008FE69AE014969C938E9313970E94549F12
:103690002CE132E2EDB7FEB73283218387E195E773
:1036A000948383830E9417A00F900F900F900F9028
:1036B0008091177590911875019751F500D000D041
:1036C0008091D0799091D179ADB7BEB712969C9385
:1036D0008E93119789E59AE014969C938E93139795
:1036E0000E94549F8BEA93E2EDB7FEB792838183E9
:1036F00083E598E7948383830E9417A08091537891
:103700008068809363780F900F900F900F9002C0A5
:103710001092637800D000D08091D0799091D179C7
:10372000ADB7BEB712969C938E93119783E29AE041
:1037300014969C938E9313970E94549F8091D079F6
:103740009091D179EDB7FEB7928381838BE19AE0B6
:10375000948383830E94549F8091D0799091D179F2
:10376000ADB7BEB712969C938E93119783E19AE002
:1037700014969C938E9313970E94549F2CE132E2EF
:10378000EDB7FEB73283218307E115E71483038386
:103790000E9417A00F900F900F900F9080911775B7
:1037A00090911875019709F063C000D000D0809106
:1037B000D0799091D179ADB7BEB712969C938E9384
:1037C000119786EF99E014969C938E9313970E941D
:1037D000549F8BEA93E2EDB7FEB79283818383E532
:1037E00098E7948383830E9417A080915378806820
:1037F000809362788091D0799091D179ADB7BEB73E
:1038000012969C938E9311978EEE99E014969C934A
:103810008E9313970E94549F8091D0799091D17983
:10382000EDB7FEB79283818386EE99E0948383831C
:103830000E94549FECE1F2E2ADB7BEB71296FC9342
:10384000EE93119714961C930E9313970E9417A052
:103850000F900F900F900F908091177590911875A1
:10386000019741F48091627880628093627802C00F
:103870001092627800D000D08091D0799091D17967
:10388000ADB7BEB712969C938E9311978CEA99E0D0
:1038900014969C938E9313970E94549F8091D07995
:1038A0009091D179EDB7FEB79283818384EA99E054
:1038B000948383830E94549F8091D0799091D17991
:1038C000ADB7BEB712969C938E9311978CE999E091
:1038D00014969C938E9313970E94549F2CE132E28E
:1038E000EDB7FEB73283218387E195E79483838325
:1038F0000E9417A00F900F900F900F908091177556
:1039000090911875019751F500D000D08091D07931
:103910009091D179ADB7BEB712969C938E931197C3
:1039200085E799E014969C938E9313970E94549F79
:103930008BEA93E2EDB7FEB79283818383E598E744
:10394000948383830E9417A080915378806880932A
:1039500061780F900F900F900F9002C010926178D5
:1039600000D000D08091D0799091D179ADB7BEB719
:1039700012969C938E9311978AE399E014969C93E8
:103980008E9313970E94549F8091D0799091D17912
:10399000EDB7FEB79283818382E399E094838383BA
:1039A0000E94549F8091D0799091D179ADB7BEB7E4
:1039B00012969C938E9311978AE299E014969C93A9
:1039C0008E9313970E94549F2CE132E2EDB7FEB71D
:1039D0003283218387E195E7948383830E9417A034
:1039E0000F900F900F900F90809117759091187510
:1039F000019751F500D000D08091D0799091D17984
:103A0000ADB7BEB712969C938E93119786E099E05E
:103A100014969C938E9313970E94549F8BEA93E283
:103A2000EDB7FEB79283818383E598E79483838320
:103A30000E9417A0809153788068809360780F90DF
:103A40000F900F900F9002C01092607820916078D4
:103A50003091617840916278509163786091647898
:103A600070916578809166780E94EB8800E41CE98B
:103A7000C8010197F1F78EE095E70E949688C8018A
:103A80000197F1F700D000D08091D0799091D17951
:103A9000ADB7BEB712969C938E93119782EF98E0C4
:103AA00014969C938E9313970E94549F8091D07983
:103AB0009091D179EDB7FEB7928381838FED98E035
:103AC000948383830E94549F8091D0799091D1797F
:103AD000ADB7BEB712969C938E9311978FEC98E07A
:103AE00014969C938E9313970E94549F2CE132E27C
:103AF000EDB7FEB73283218387E195E79483838313
:103B00000E9417A00F900F900F900F9020911775A3
:103B1000309118752130310541F480EA80930F759A
:103B200030935D7820935C7809C080E280930F75B4
:103B300081E090E090935D7880935C7840910E7581
:103B400050910F756091107570911175809112757B
:103B50000E94228980E49CE90197F1F78EE095E7C5
:103B60000E94968800D000D0EDB7FEB731968EEA5D
:103B700093E2ADB7BEB712969C938E931197809146
:103B80001275828313820E94C99FEDB7FEB73196EA
:103B900089EB93E2ADB7BEB712969C938E931197C3
:103BA00080911175828313820E94C99FEDB7FEB781
:103BB000319684EC93E2ADB7BEB712969C938E9388
:103BC000119780911075828313820E94C99FEDB76F
:103BD000FEB731968FEC93E2ADB7BEB712969C93C9
:103BE0008E93119780910F75828313820E94C99FD3
:103BF000EDB7FEB731968AED93E2ADB7BEB7129638
:103C00009C938E93119780910E75828313820E94EC
:103C1000C99F2CE132E2EDB7FEB7328321838E01DA
:103C2000095F1F4F148303830E9417A00F900F900A
:103C30000F900F9080E698E70E94878800D000D010
:103C4000EDB7FEB7319685EE93E2ADB7BEB71296EB
:103C50009C938E93119780916478828313820E9443
:103C6000C99FEDB7FEB7319680EF93E2ADB7BEB70F
:103C700012969C938E93119780916378828313821E
:103C80000E94C99FEDB7FEB731968BEF93E2ADB7B7
:103C9000BEB712969C938E9311978091627882831F
:103CA00013820E94C99FEDB7FEB7319687E094E278
:103CB000ADB7BEB712969C938E93119780916178A1
:103CC000828313820E94C99FEDB7FEB7319682E1CD
:103CD00094E2ADB7BEB712969C938E9311978091E4
:103CE0006078828313820E94C99F2CE132E2EDB793
:103CF000FEB732832183148303830C94771287E603
:103D000098E70E94B48880916D780E94473B8C01AF
:103D1000F0906A7880916B780E94703BADB7BEB727
:103D20001A970FB6F894BEBF0FBEADBFEDB7FEB782
:103D300031962DE134E212963C932E931197138322
:103D40000283F48215829783868380916C788087C2
:103D500011860E94C99F8091697890E0EDB7FEB707
:103D60003A960FB6F894FEBF0FBEEDBF9C012F71BF
:103D7000307085FF0EC08DB79EB708970FB6F894C8
:103D80009EBF0FBE8DBFEDB7FEB731968BE494E2B8
:103D90000DC08DB79EB708970FB6F8949EBF0FBEA3
:103DA0008DBFEDB7FEB7319681E694E2ADB7BEB7F1
:103DB00012969C938E931197338322838091687817
:103DC0008483158280916778868317820E94C99FB9
:103DD000EDB7FEB738960FB6F894FEBF0FBEEDBF35
:103DE0000C94671285E598E70E94A5888091557824
:103DF00087FF13C000D000D08091D0799091D17905
:103E0000ADB7BEB712969C938E93119785EC98E050
:103E100014969C938E9313970EC000D000D080917F
:103E2000D0799091D179EDB7FEB7928381838BEBF6
:103E300098E0948383830E94549F0F900F900F907B
:103E40000F908091557886FF13C000D000D08091EC
:103E5000D0799091D179ADB7BEB712969C938E93DD
:103E6000119781EB98E014969C938E9313970EC054
:103E700000D000D08091D0799091D179EDB7FEB784
:103E80009283818387EA98E0948383830E94549F7E
:103E90000F900F900F900F908091557885FF13C071
:103EA00000D000D08091D0799091D179ADB7BEB7D4
:103EB00012969C938E9311978DE998E014969C939B
:103EC0008E9313970EC000D000D08091D07990913E
:103ED000D179EDB7FEB79283818383E998E094832B
:103EE00083830E94549F0F900F900F900F908091AA
:103EF000557884FF13C000D000D08091D079909184
:103F0000D179ADB7BEB712969C938E93119788E87E
:103F100098E014969C938E9313970EC000D000D017
:103F20008091D0799091D179EDB7FEB7928381835A
:103F30008DE798E0948383830E94549F0F900F90A5
:103F40000F900F908091557882FF13C000D000D061
:103F50008091D0799091D179ADB7BEB712969C93EC
:103F60008E93119782E798E014969C938E93139703
:103F70000EC000D000D08091D0799091D179EDB76A
:103F8000FEB79283818387E698E0948383830E94BF
:103F9000549F0F900F900F900F908091557881FF54
:103FA00013C000D000D08091D0799091D179ADB775
:103FB000BEB712969C938E9311978DE598E0149658
:103FC0009C938E9313970EC000D000D08091D0792F
:103FD0009091D179EDB7FEB79283818383E598E024
:103FE000948383830E94549F0F900F900F900F90A3
:103FF0008091557880FF13C000D000D08091D07997
:104000009091D179ADB7BEB712969C938E931197CC
:1040100088E498E014969C938E9313970EC000D07A
:1040200000D08091D0799091D179EDB7FEB792838D
:1040300081838DE398E0948383830E94549FEDB73E
:10404000FEB7319687E794E2ADB7BEB712969C9360
:104050008E93119780915578828313820E94C99F15
:1040600024C48EE095E70E94968800D000D0EDB77A
:10407000FEB731968EEA93E2ADB7BEB712969C9327
:104080008E93119780911275828313820E94C99F2B
:10409000EDB7FEB7319689EB93E2ADB7BEB7129696
:1040A0009C938E93119780911175828313820E9445
:1040B000C99FEDB7FEB7319684EC93E2ADB7BEB7BA
:1040C00012969C938E931197809110758283138220
:1040D0000E94C99FEDB7FEB731968FEC93E2ADB762
:1040E000BEB712969C938E93119780910F75828321
:1040F00013820E94C99FEDB7FEB731968AED93E215
:10410000ADB7BEB712969C938E93119780910E75A2
:10411000A3CF00D000D08091D0799091D179ADB764
:10412000BEB712969C938E93119782E298E01496F4
:104130009C938E9313970E94549F8091D079909175
:10414000D179EDB7FEB7928381838EE098E09483B6
:1041500083830E94549F8091D0799091D179ADB79B
:10416000BEB712969C938E9311978FEE97E014969C
:104170009C938E9313970E94549F8091D079909135
:10418000D179EDB7FEB7928381838CED97E094836C
:1041900083830E94549F8091D0799091D179ADB75B
:1041A000BEB712969C938E9311978EEB97E0149660
:1041B0009C938E9313970E94549F8091D0799091F5
:1041C000D179EDB7FEB79283818386EA97E0948335
:1041D00083830E94549F8091D0799091D179ADB71B
:1041E000BEB712969C938E93119782E897E014962F
:1041F0009C938E9313970E94549F8091D0799091B5
:10420000D179EDB7FEB79283818386E697E09483F8
:1042100083830E94549F8091D0799091D179ADB7DA
:10422000BEB712969C938E93119789E397E01496EC
:104230009C938E9313970E94549F8091D079909174
:10424000D179EDB7FEB79283818386E197E09483BD
:1042500083830E94549F8091D0799091D179ADB79A
:10426000BEB712969C938E93119789EF96E01496A1
:104270009C938E9313970E94549F2CE132E2EDB7EA
:10428000FEB732832183CE010596948383830E94F7
:1042900017A08D819E8104970F900F900F900F9023
:1042A000029708F001C100D000D08091D0799091A0
:1042B000D179ADB7BEB712969C938E9311978CECC3
:1042C00096E014969C938E9313970E94549F80912E
:1042D000D0799091D179EDB7FEB7928381838FE940
:1042E00096E0948383830E94549FECE1F2E2ADB7A1
:1042F000BEB71296FC93EE931197CE014B9614968F
:104300009C938E9313970E9417A08B8D9C8DEF9694
:104310009FAF8EAFEF978091D0799091D179ADB763
:10432000BEB712969C938E9311978DE796E01496E4
:104330009C938E9313970E94549F3FE1E32E32E2A9
:10434000F32EEDB7FEB7F282E1828E01035E1F4FBE
:10435000148303830E9417A08D8D9E8DAF8DB8A10D
:10436000C158DF4F88839983AA83BB83CF57D0403E
:104370008091D0799091D179ADB7BEB712969C93C8
:104380008E9311978CE596E014969C938E931397D9
:104390000E94549FEDB7FEB7F282E182148303833B
:1043A0000E9417A08D8D9E8DAF8DB8A1CD57DF4F88
:1043B00088839983AA83BB83C358D0408091D079E6
:1043C0009091D179ADB7BEB712969C938E93119709
:1043D0008DE396E014969C938E9313970E94549FBE
:1043E000EDB7FEB7F282E182148303830E9417A027
:1043F0008D8D9E8DAF8DB8A1C957DF4F888399836E
:10440000AA83BB83C758D0408091D0799091D1794D
:10441000ADB7BEB712969C938E9311978DE196E03F
:1044200014969C938E9313970E94549FEDB7FEB7FA
:10443000F282E182148303830E9417A08D8D9E8DEA
:10444000AF8DB8A1C557DF4F88839983AA83BB83FB
:10445000CB58D0408091D0799091D179ADB7BEB78B
:1044600012969C938E9311978EEF95E014969C93E1
:104470008E9313970E94549FEDB7FEB7F282E182AC
:10448000148303830E9417A08D8D9E8DAF8DB8A1DC
:10449000C157DF4F88839983AA83BB83CF58D0400D
:1044A0000F900F900F900F908D819E81833091051A
:1044B00009F4EAC08430910564F48130910509F46F
:1044C0004FC0823091050CF081C0892B99F00C947B
:1044D000A50D8530910509F4FAC0853091050CF4DD
:1044E000D7C08630910509F412C1079711F00C94DA
:1044F000A50DE7C18E010B5A1F4F60E070E080E010
:1045000090E044E150E098010E940D88780100E0BD
:1045100010E000D000D000D0EDB7FEB731962FE804
:1045200034E2ADB7BEB712963C932E931197138326
:104530000283D7018D919D917D01958384830E9493
:10454000C99F0F5F1F4FEDB7FEB736960FB6F894B1
:10455000FEBF0FBEEDBF0A301105D9F60C946712ED
:104560008E0107591F4F60E070E080E090E044E169
:1045700050E098010E943888780100E010E000D0F7
:1045800000D000D0EDB7FEB731962FEA34E2ADB7D8
:10459000BEB712963C932E93119713830283D701D3
:1045A0008D919D917D01958384830E94C99F0F5FAA
:1045B0001F4FEDB7FEB736960FB6F894FEBF0FBE8D
:1045C000EDBF0A301105D9F60C94671200D000D067
:1045D0008091D0799091D179ADB7BEB712969C9366
:1045E0008E9311978FEC95E014969C938E9313976E
:1045F0000E94549F2CE132E2EDB7FEB73283218353
:10460000CE014996948383830E9417A00F900F9048
:104610000F900F90898D9A8D0E94828B9B01AC0127
:1046200077FD1FC000D000D000D0EDB7FEB73196A7
:1046300080ED94E2ADB7BEB712969C938E9311971E
:10464000898D9A8D93838283358324830E94C99FA9
:10465000EDB7FEB736960FB6F894FEBF0FBEEDBFAE
:1046600022C100D000D086EF94E2ADB7BEB712965B
:104670009C938E931197898D9A8D14969C938E930B
:1046800013970E94C99F0BC10E94738A0C94A50DB9
:104690008DB79EB747970FB6F8949EBF0FBE8DBFDC
:1046A000ADB7BEB71196FE01E358FF4F87E1019009
:1046B0000D928150E1F70E94AE8AADB7BEB7579612
:1046C0000FB6F894BEBF0FBEADBF0C94A50DEDB7ED
:1046D000FEB777970FB6F894FEBF0FBEEDBFADB72C
:1046E000BEB71196FE01E358FF4F87E101900D928E
:1046F0008150E1F70E94EE8B2DB73EB7295E3F4F08
:104700000FB6F8943EBF0FBE2DBF0C94A50D00D080
:1047100000D08091D0799091D179ADB7BEB7129683
:104720009C938E93119784EA95E014969C938E93B4
:1047300013970E94549F2CE132E2EDB7FEB732830B
:104740002183CE014B96948383830E9417A00F9000
:104750000F900F900F908B8D9C8DBE0163587F4FF3
:104760000E940A8C181619060CF085C000D000D0E3
:1047700000D08DE095E2ADB7BEB712969C938E93B4
:104780001197C158DF4F88819981AA81BB81CF578A
:10479000D040EDB7FEB783839483A583B6830E9490
:1047A000C99F8DE195E2ADB7BEB712969C938E93EB
:1047B0001197CD57DF4F88819981AA81BB81C3585A
:1047C000D040EDB7FEB783839483A583B6830E9460
:1047D000C99F8DE295E2ADB7BEB712969C938E93BA
:1047E0001197C957DF4F88819981AA81BB81C7582A
:1047F000D040EDB7FEB783839483A583B6830E9430
:10480000C99F8BE395E2ADB7BEB712969C938E938A
:104810001197C557DF4F88819981AA81BB81CB58F9
:10482000D040EDB7FEB783839483A583B6830E94FF
:10483000C99F8AE495E2ADB7BEB712969C938E935A
:104840001197C157DF4F88819981AA81BB81CF58C9
:10485000D040EDB7FEB783839483A583B6830E94CF
:10486000C99F2DB73EB72A5F3F4F0FB6F8943EBFA2
:104870000FBE2DBF18C000D000D08091D07990918C
:10488000D179ADB7BEB712969C938E93119780E9FC
:1048900095E014969C938E9313970E94549F0F90CB
:1048A0000F900F900F9000D000D02CE132E2EDB7C6
:1048B000FEB732832183CE010796948383830C94C1
:1048C00077120E94FF8A81309105C9F5E091C27983
:1048D000F091C379E080F18000E010E02BC000D0BF
:1048E00000D000D0ADB7BEB7119628E535E2EDB7E0
:1048F000FEB73283218313961C930E931297C8013F
:10490000880F991FE091C279F091C379E80FF91FE0
:104910008081918115969C938E9314970E94C99FD4
:104920000F5F1F4F8DB79EB706960FB6F8949EBFC8
:104930000FBE8DBF0E151F0594F20C9467120097E1
:1049400031F48CE795E20E94E29F0C9467128F5F2E
:104950009F4F11F00C94671200D000D08091D07955
:104960009091D179EDB7FEB79283818384E695E08B
:10497000948383830E94549F0F900F900F900F9009
:104980000C94671200D000D08091D0799091D179A9
:10499000ADB7BEB712969C938E9311978EE495E0B7
:1049A00014969C938E9313970E94549F8091D07974
:1049B0009091D179EDB7FEB7928381838AE395E038
:1049C000948383830E94549F8091D0799091D17970
:1049D000ADB7BEB712969C938E9311978DE195E07B
:1049E00014969C938E9313970E94549F2CE132E26D
:1049F000EDB7FEB732832183CE010596948383837E
:104A00000E9417A00F900F900F900F908D819E81A4
:104A1000029708F076C000D000D08091D0799091B4
:104A2000D179ADB7BEB712969C938E93119784E05F
:104A300095E014969C938E9313970E94549F8091B7
:104A4000D0799091D179EDB7FEB79283818386EFCB
:104A500094E0948383830E94549F8091D0799091B5
:104A6000D179ADB7BEB712969C938E93119789EE0C
:104A700094E014969C938E9313970E94549F809178
:104A8000D0799091D179EDB7FEB7928381838EED85
:104A900094E0948383830E94549F8091D079909175
:104AA000D179ADB7BEB712969C938E93119782EDD4
:104AB00094E014969C938E9313970E94549F809138
:104AC000D0799091D179EDB7FEB79283818388EC4C
:104AD00094E0948383830E94549FECE1F2E2ADB7AB
:104AE000BEB71296FC93EE931197CE0103961496DF
:104AF0009C938E9313970E9417A00F900F900F9086
:104B00000F908D819E81009729F0019711F00C94F0
:104B1000A50D06C08B819C810E9473480C94A50D45
:104B20008B819C8164E00E9485470C94A50D0E94B6
:104B300065410C94A50D00D000D08091D079909162
:104B4000D179ADB7BEB712969C938E93119785EB32
:104B500094E014969C938E9313970E94549F809197
:104B6000D0799091D179EDB7FEB79283818381EAB4
:104B700094E0948383830E94549F8091D079909194
:104B8000D179ADB7BEB712969C938E93119784E8F6
:104B900094E014969C938E9313970E94549F2CE15B
:104BA00032E2EDB7FEB732832183CE0105969483BE
:104BB00083830E9417A00F900F900F900F908D810C
:104BC0009E81009729F0019711F00C94A50D04C067
:104BD0000E9460910C94A50D0E9491910C94A50DDA
:104BE00000D000D08091D0799091D179ADB7BEB787
:104BF00012969C938E9311978BE694E014969C9357
:104C00008E9313970E94549F8091D0799091D1797F
:104C1000EDB7FEB79283818384E494E09483838329
:104C20000E94549F8091D0799091D179ADB7BEB751
:104C300012969C938E9311978CE094E014969C931B
:104C40008E9313970E94549F8091D0799091D1793F
:104C5000EDB7FEB7928381838DEE93E094838383D7
:104C60000E94549F8091D0799091D179ADB7BEB711
:104C700012969C938E93119780ED93E014969C93DB
:104C80008E9313970E94549F2CE132E2EDB7FEB74A
:104C900032832183CE010596948383830E9417A0DB
:104CA0000F900F900F900F908D819E81039708F0C9
:104CB00084C000D000D08091D0799091D179ADB7E7
:104CC000BEB712969C938E93119788EB93E014963F
:104CD0009C938E9313970E94549F8091D0799091CA
:104CE000D179EDB7FEB7928381838AEA93E094830A
:104CF00083830E94549F8091D0799091D179ADB7F0
:104D0000BEB712969C938E9311978DE993E01496FB
:104D10009C938E9313970E94549F8091D079909189
:104D2000D179EDB7FEB79283818382E993E09483D2
:104D300083830E94549F8091D0799091D179ADB7AF
:104D4000BEB712969C938E93119786E893E01496C3
:104D50009C938E9313970E94549F8091D079909149
:104D6000D179EDB7FEB7928381838CE793E094838A
:104D700083830E94549F8091D0799091D179ADB76F
:104D8000BEB712969C938E9311978FE593E014967D
:104D90009C938E9313970E94549F2CE132E2EDB7BF
:104DA000FEB732832183CE010396948383830E94CE
:104DB00017A00F900F900F900F908D819E818130E2
:104DC0009105B1F08230910524F4892B51F00C94B7
:104DD000A50D8230910589F0039711F00C94A50D73
:104DE00012C08B819C816DEE7FEF0E94376EF9CFF0
:104DF0008B819C810E94954CFBCF8B819C810E9472
:104E0000EE4E0C94A50DCE018F5A9F4F0E94F75085
:104E10000C94A50D0E94764D00D000D08091D079E1
:104E20009091D179ADB7BEB712969C938E9311979E
:104E30008AE293E014969C938E9313970E94549F5A
:104E40000C9479121F920F920FB60F920BB60F921D
:104E500011242F933F934F935F936F937F938F937F
:104E60009F93AF93BF93EF93FF9380915C78909162
:104E70005D78892B09F473C08091AC749091AD7406
:104E800001969093AD748093AC74039709F067C05A
:104E90001092AD741092AC7485E598E70E94A588D5
:104EA0008091557885FF5BC010925D7810925C7898
:104EB00081E090E00E94418D6091D2797091D37928
:104EC0008CE995E20E949E9F87E698E70E94B4884D
:104ED0008091697890E02091D2793091D379AC01BA
:104EE0004F71507085FF14C08DB79EB70A970FB6EB
:104EF000F8949EBF0FBE8DBFEDB7FEB73196ADB72C
:104F0000BEB712963C932E93119780EB95E211C099
:104F1000ADB7BEB71A970FB6F894BEBF0FBEADBF00
:104F2000EDB7FEB7319612963C932E93119784EC11
:104F300095E2938382835583448380916878868346
:104F4000178280916778808711860E94439F8DB772
:104F50009EB70A960FB6F8949EBF0FBE8DBFFF9105
:104F6000EF91BF91AF919F918F917F916F915F91E1
:104F70004F913F912F910F900BBE0F900FBE0F904E
:104F80001F9018951F920F920FB60F920BB60F92AB
:104F900011242F933F934F935F936F937F938F933E
:104FA0009F93AF93BF93EF93FF938091AA749091D7
:104FB000AB7401969093AB748093AA748091AA7499
:104FC0009091AB74839709F057C06091D27970913A
:104FD000D37980E092E20E949E9F87E698E70E9444
:104FE000B4888091697890E02091D2793091D3791A
:104FF000AC014F71507085FF14C08DB79EB70A97F2
:105000000FB6F8949EBF0FBE8DBFEDB7FEB73196B9
:10501000ADB7BEB712963C932E9311978BE494E2F2
:1050200011C0ADB7BEB71A970FB6F894BEBF0FBE8A
:10503000ADBFEDB7FEB7319612963C932E93119704
:1050400081E694E2938382835583448380916878D8
:105050008683178280916778808711860E94439F9C
:105060008DB79EB70A960FB6F8949EBF0FBE8DBF40
:105070001092AB741092AA74FF91EF91BF91AF910F
:105080009F918F917F916F915F914F913F912F9160
:105090000F900BBE0F900FBE0F901F9018951F9290
:1050A0000F920FB60F920BB60F9211242F933F93CE
:1050B0004F935F936F937F938F939F93AF93BF9320
:1050C000EF93FF9388ED95E20E94E29F0E942B757B
:1050D000FF91EF91BF91AF919F918F917F916F91D0
:1050E0005F914F913F912F910F900BBE0F900FBE8C
:1050F0000F901F9018951F920F920FB60F920BB63C
:105100000F9211242F933F934F935F936F937F934D
:105110008F939F93AF93BF93EF93FF9383EF95E2AA
:105120000E94E29F0E948D75FF91EF91BF91AF9118
:105130009F918F917F916F915F914F913F912F91AF
:105140000F900BBE0F900FBE0F901F9018951F92DF
:105150000F920FB60F920BB60F9211240F931F935D
:105160002F933F934F935F936F937F938F939F936F
:10517000AF93BF93EF93FF930E94E73B0E94514D83
:105180000E94E73B909357788093567881E090E0B7
:105190000E94418D8EE096E20E94E29F40915678F7
:1051A0005091577860915678709157788DB79EB727
:1051B00008970FB6F8949EBF0FBE8DBF0DB71EB7F0
:1051C0000F5F1F4F24E436E2EDB7FEB73283218331
:1051D000F8015383428380E090E00E94D09A2DEB47
:1051E00037E346E059E30E94D99BF8016483758355
:1051F000868397830E94C99F8DB79EB708960FB686
:10520000F8949EBF0FBE8DBF6091D2797091D37913
:1052100086E696E20E949E9F81E090E00E94DCA0DC
:105220008F929F92AF92BF92CF92DF92EF92FF92B6
:105230000F931F936C014A015B01FC01648D758D16
:10524000882777FD8095982F0E94D29A7B018C0148
:10525000F601668D778D882777FD8095982F0E94BF
:10526000D29A9B01AC01C801B7010E94379A7B0119
:105270008C01C501B4012BED3FE049EC50E40E94E4
:10528000379A9B01AC01C801B7010E94D99B4B0121
:105290005C01F60164857585882777FD8095982FD8
:1052A0000E94D29A7B018C01F60162857385882762
:1052B00077FD8095982F0E94D29A9B01AC01C8017E
:1052C000B7010E94D99B9B01AC01C501B4010E94AA
:1052D000D99B1F910F91FF90EF90DF90CF90BF90DF
:1052E000AF909F908F9008958F929F92AF92BF92B0
:1052F000CF92DF92EF92FF920F931F936C019A016E
:10530000AB01CA01B9010E94CF992BED3FE049E4FE
:1053100050E40E94D99B4B015C01F601668D778DAC
:10532000882777FD8095982F0E94D29A7B018C0167
:10533000F601648D758D882777FD8095982F0E94E2
:10534000D29A9B01AC01C801B7010E94379A9B0118
:10535000AC01C501B4010E94D99B4B015C01F6016F
:1053600062857385882777FD8095982F0E94D29A51
:105370007B018C01F60164857585882777FD809512
:10538000982F0E94D29A9B01AC01C801B7010E94DC
:10539000D99B9B01AC0160E070E080E89FE30E9434
:1053A000379A9B01AC01C501B4010E94D99B1F91A2
:1053B0000F91FF90EF90DF90CF90BF90AF909F90B4
:1053C0008F90089525E33AEF4EE85CE30E94D99B65
:1053D000089525E33AEF4EE85CE30E94379A08957A
:1053E000282F22952F709AE0299F900111248F7009
:1053F000820F0895282F6AE00E945B9C382F329517
:10540000307F822F0E945B9C832F890F0895CF935A
:10541000DF93EC0121303105A1F02230310569F133
:10542000232B29F060E070E080E89FEB43C0CB01C4
:10543000BA010E94D29AAB01BC01CE010E9474292C
:1054400037C0CB01BA010E94D29A20E030E040E0A0
:105450005FE30E94CE9920E030E040E857E30E94ED
:10546000D99B22E539E44DE15AE30E94379AAB011A
:10547000BC01CE010E9474291BC0CB01BA010E945D
:10548000D29A20E030E040E05FE30E94CE9920E035
:1054900030E040E857E30E94D99B27E036E441EC36
:1054A00054E30E94379AAB01BC01CE010E947429DB
:1054B0000E94E929DF91CF91089522E539E44DE179
:1054C0005AE30E94D99B22E539E44DE15AE30E9458
:1054D000D99B20E030E040E857E40E94D99B20E0CF
:1054E00030E040E05FE30E94CF990E940D9B0E9454
:1054F0009F9A9B01AC01CA01089522E539E44DE170
:105500005AE30E94D99B20E030E040E857E40E9433
:10551000D99B20E030E040E05FE30E94CF990E94F9
:105520000D9B0E949F9A9B01AC01CA01089520E047
:1055300030E040E05FE30E94CF990E940D9B0E9403
:105540009F9A9B01AC01CA0108950F931F93CF93BB
:10555000DF938C01E901CB01BA0125E33AEF4EE874
:105560005CE30E94D99BAB01BC01C8010E941029D9
:10557000C130D10569F0C230D10569F0CD2B29F0D9
:105580002FEF3FEF4FEF5FEF0AC00E94972A05C051
:105590000E947D2A02C00E945D2A9B01AC01B901D4
:1055A000CA01DF91CF911F910F910895FC01DB019A
:1055B0001092070110920A01809102018B7F809363
:1055C000020120E030E007C08FEF2E3F380719F4CA
:1055D0002AE030E022C0809100012F5F3F4F87FD1D
:1055E000F3CF809102018F7E8093020185E08A953E
:1055F000F1F7309719F080910601808380910901BD
:105600008C9380910201806180930201809102015C
:1056100084608093020120E030E0C9010895982F52
:105620008FEF80930A0180930701809102018B7FA5
:10563000809302018091000187FDFCCF90930801C7
:1056400060930B0180910201877F8093020185E0C6
:105650008A95F1F780910201886080930201809120
:10566000020184608093020180E090E00895EF924F
:10567000FF920F931F93CF93DF937B018C01C0E0C8
:10568000D0E0F8016081CE0101968E159F0511F4DE
:1056900080E002C0F80181810E940F2B22960E5FEC
:1056A0001F4FCE15DF056CF3DF91CF911F910F9146
:1056B000FF90EF900895EF92FF920F931F93CF9377
:1056C000DF937B01EC0100E010E0C80101968E152C
:1056D0009F0519F480E090E002C0CE010196BE0162
:1056E0000E94D62A0E5F1F4F22960E151F056CF3DF
:1056F000DF91CF911F910F91FF90EF900895CF937D
:10570000DF939C01EB0181E08883898341E050E0D5
:105710005B834A831D821C8260E270E07B876A871C
:1057200088EC90E09D878C8780EE91E09F878E8744
:1057300088EC90E0A0E0B0E088A399A3AAA3BBA363
:105740008EE190E0998B888B86E190E09B8B8A8B31
:1057500081E493E09D8B8C8B82E690E09F8B8E8B17
:1057600082E090E0998F888F80E090E0A4E1B0E043
:1057700088A799A7AAA7BBA782E193E0A0E0B0E021
:105780008CA39DA3AEA3BFA381E597EFA1E0B0E0FA
:105790008CA79DA7AEA7BFA780E090E0A5E0B0E0F2
:1057A0008CAB9DABAEABBFAB83E393E3A0E0B0E0CB
:1057B00088AF99AFAAAFBBAF85EC90E0A0E0B0E0B6
:1057C00088AB99ABAAABBBAB1B8E1A8E5D8F4C8F8F
:1057D0005F8F4E8F2530310509F478C126303105B1
:1057E000C4F42230310509F4CBC02330310544F430
:1057F0002115310559F12130310509F06BC173C014
:105800002330310509F405C12430310509F062C1A6
:105810002FC12830310509F459C1293031054CF424
:105820002630310509F452C12730310509F052C143
:105830004DC12A30310509F449C12A3031050CF433
:1058400045C12B30310509F045C140C17D876C87CA
:1058500083E090E0998F888F87EE96E29D8F8C8F02
:1058600088EE93E09F8F8E8FCE0144E553EA6FE878
:1058700072E421E030E00E94A52A6CAB7DAB8EABD8
:105880009FABCE014CEB54E767E572E421E030E0DA
:105890000E94A52A68AF79AF8AAF9BAFCE0140E0E6
:1058A00050E06CE872E421E030E00E94A52A6CAF81
:1058B0007DAF8EAF9FAFCE014DE657E66CE672E44A
:1058C00022E030E00E94A52AC05CDF4F6883798324
:1058D0008A839B83C054D0408AE790E09F838E8365
:1058E00088E79FEF4AC08FEF9FEF9B8F8A8F89EFEA
:1058F0009DE29D8F8C8F84E690E09F8F8E8FCE01EE
:1059000044E85DE067E270E421E030E00E94A52A0F
:105910006CAB7DAB8EAB9FABCE0143E65FE769E539
:105920007FE321E030E00E94A52A68AF79AF8AAF1B
:105930009BAFCE0140E050E060EA71E421E030E04E
:105940000E94A52A6CAF7DAF8EAF9FAFCE014AE516
:1059500055EF6FE171E422E030E00E94A52AC05CBF
:10596000DF4F688379838A839B83C054D0408AE069
:1059700090E09F838E8384E79FEF99878887AAC0F2
:105980005B8F4A8F8DE19EE29D8F8C8F84E690E045
:105990009F8F8E8FCE014CEF58E16BE97FE321E0C2
:1059A00030E00E94A52A6CAB7DAB8EAB9FABCE01E5
:1059B00049E354EB68E17FE321E030E00E94A52A4F
:1059C00068AF79AF8AAF9BAFCE0140E050E060EAAC
:1059D00071E421E030E00E94A52A6CAF7DAF8EAF6C
:1059E0009FAFCE0149E25BEC6FE171E422E030E071
:1059F0000E94A52AC05CDF4F688379838A839B83DA
:105A0000C054D04088E790E09F838E8382E89FEF68
:105A1000B4CF5B8F4A8F80E29FE49D8F8C8F80E1B3
:105A200097E29F8F8E8FCE0147ED53EC68E972E4C9
:105A300021E030E00E94A52A6CAF7DAF8EAF9FAF12
:105A4000CE014CED57E564E672E422E030E00E94BE
:105A5000A52AC05CDF4F688379838A839B83C05407
:105A6000D0408EEA90E09F838E838CEE9FEF85CFAF
:105A700019828FE295E09D8F8C8F88EE93E09F8F47
:105A80008E8FCE014AEF5EEF6FEE72E421E030E0E0
:105A90000E94A52A6CAF7DAF8EAF9FAFCE0144E3CD
:105AA00051E969E672E422E030E00E94A52AC05C78
:105AB000DF4F688379838A839B83C054D04088E614
:105AC00091E09F838E831986188604C018821982FC
:105AD0001D821C82DF91CF9108950F931F93CF9366
