:100000000C9424030C9448030C9448030C944B1256
:100010000C94E4110C94B8110C948C110C944803BA
:100020000C9448030C9448030C9448030C94480324
:100030000C9448030C9448030C9448030C94480314
:100040000C9448030C9448030C9448030C94480304
:100050000C944A030C9448030C9448030C944803F2
:100060000C9448030C9448030C9448030C944803E4
:100070000C9448030C9448030C9448030C944803D4
:100080000C9448030C9448030C9448030C945B03B1
:100090000C9448030C9448030C9448030C944803B4
:1000A0000C9448030C9448030C9448030C944803A4
:1000B0000C9448030C9448030C9448030C94480394
:1000C0000C9448030C9448030C9448030C94480384
:1000D0000C9448030C9448030C9448030C94480374
:1000E0000C944803F420F120F720FA20FD20002191
:1000F0000321062109210C210F211221152118218C
:100100001B211E2121212421272180217D218321C2
:10011000862189218C218F219221952198219B2153
:100120009E21A121A421A721AA21B921B921B92168
:10013000AD21B021B321B621D221BB23BB23BB23E8
:10014000BB23BB23CF21D521BB23BB23BB23BB2395
:10015000BB23BB23BB23D821DB21DE21BB23E12131
:10016000E421BB23BB23BB23BB23BB23E721BB234E
:10017000BB23EA21ED21BB23BB23BB23BB23BB2332
:10018000BB23F021F321F621BB23BB23BB23F921A1
:10019000FC21FF21BB230222BB230522BB23BB235F
:1001A0000822BB230B220E22112214221722BB236A
:1001B000BB23BB231A22BB23BB23BB23BB23BB23F1
:1001C000BB23BB23BB231D22BB23BB232022232213
:1001D00026222922BB23BB232C222F223222BB23FF
:1001E0003522BB233822BB233B223E22BB234122A4
:1001F000BB23BB23BB23BB23BB234422BB23BB2387
:10020000BB23BB23BB23BB23BB2347224A224D2254
:10021000BB23BB235022BB23BB23BB235322BB23C3
:10022000BB23562259225C22BB23BB235F226222BE
:1002300065226822BB23BB236B226E2271227422AB
:1002400077227A227D2280228322862289228C2292
:100250008F229222952298229B229E22A122A422C2
:10026000A722AA22AD22B022B322B622B922BC22F2
:10027000BF22C222C522C822CB22CE22D122D42222
:10028000D722DA22DD22E022E322E622E922EC2252
:10029000EF22F222F522F822FB22FE220123042380
:1002A00007230A230D2310231323162319231C23AA
:1002B0001F232223252328232B232E2331233423DA
:1002C00037233A233D2340234323462349234C230A
:1002D000BB23BB234F235223552358235B235E2389
:1002E0006123642367236A236D237023732376239A
:1002F00079237C237F238223852388238B238E23CA
:100300009123942397239A239D23A023A323A623F9
:10031000A923AC23AF23B223BB23BB23BB23BB2323
:10032000BB23B523BB23BB23B82353656375656E1D
:1003300063696120646520484F4D45200A00417083
:100340006167756520656C20636F6E74726F6C6198
:10035000646F72200A0056657269666963616E6433
:100360006F20436F6E6578696F6E657320646520DA
:100370004361626C6573200A004170616775652096
:10038000656C20636F6E74726F6C61646F72200AAB
:100390000056657269666963616E646F20546172AC
:1003A0006A6574617320504D4473200A00426F7473
:1003B0006F6E206465205061726164612064652005
:1003C000456D657267656E63696120416374697626
:1003D0006F200A004572726F7220656E20656C2076
:1003E000436F6E74726F6C61646F72206465206D10
:1003F0006F746F726573204E6F2E2032200A004595
:1004000072726F7220656E20436F6E74726F6C61D2
:10041000646F722032200A004572726F7220656E1E
:1004200020656C20436F6E74726F6C61646F722014
:100430006465206D6F746F726573204E6F2E20316E
:10044000200A004572726F7220656E20436F6E74D1
:10045000726F6C61646F722031200A004361626CBC
:10046000652023322064652073656E736F72657337
:1004700020646573636F6E65637461646F200A0046
:100480004361626C652023312064652073656E735F
:100490006F72657320646573636F6E656374616406
:1004A0006F200A00426F746F6E2064652050617285
:1004B00061646120646520456D657267656E63697E
:1004C000612041637469766F200A004572726F7211
:1004D00020646520496E737472756363696F6E2062
:1004E0000A00204572726F72206465204D6F766934
:1004F0006D69656E746F200A006E616E00696E66CC
:10050000006364696E6F70737578585B65666745E4
:10051000464700616E006E66696E69747900CDCCE5
:10052000CC3D0AD7233C17B7D13877CC2B329595E1
:10053000E6241FB14F0A000020410000C8420040DD
:100540001C4620BCBE4CCA1B0E5AAEC59D74004052
:100550007A10F35A00A0724E18090010A5D4E800D2
:1005600000E87648170000E40B54020000CA9A3BEA
:10057000000000E1F5050000809698000000404270
:100580000F000000A08601000000102700000000FE
:10059000E803000000006400000000000A00000002
:1005A00000000100000000002C76D888DC674F08AE
:1005B00023DFC1DFAE59E1B1B796E5E3E453C63AB4
:1005C000E651997696E8E6C28426EB898C9B62ED2B
:1005D000407C6FFCEFBC9C9F40F2BAA56FA5F490E5
:1005E000055A2AF75C936B6CF9676DC11BFCE0E45C
:1005F0000D47FEF520E6B500D0ED902E03009435B2
:1006000077050080841E080000204E0A000000C804
:100610000C333333330F986E12831141EF8D211455
:10062000893BE65516CFFEE6DB18D1844B381BF725
:100630007C1D901DA4BBE424203284725E228100C4
:10064000C9F124ECA1E53D2711241FBECFEFD1E273
:10065000DEBFCDBF8CE880937400109275001BE75D
:10066000A0E0B2E2E0E2F4E101E00BBF02C00790DB
:100670000D92A039B107D9F712E8A0E9BBE701C094
:100680001D92A533B107E1F70E940B0F0C940E8A5F
:100690000C9400001F920F920FB60F9211248F93AB
:1006A0008091CF80877F8093CF808F910F900FBEF6
:1006B0000F901F9018951F920F920FB60F92112452
:1006C0008F938091CF808F7E8093CF808F910F907A
:1006D0000FBE0F901F901895CF93DF93C091522EAD
:1006E000D091532EC130D10509F0E6C08091AE7B88
:1006F0009091AF7B892B69F01092532E1092522E5D
:1007000080E092E20E941489D093532EC093522E1F
:10071000D3C08091EE819091EF810A9719F51092E4
:10072000532E1092522E80E192E20E941489609121
:1007300023827091248289E090E00E94471E90936A
:10074000AF7B8093AE7B00D08AE392E2EDB7FEB739
:10075000928381830E94FB88D093532EC093522EA4
:100760000F900F908091EE819091EF810D9719F588
:100770001092532E1092522E8FE592E20E9414890D
:100780008AE090E06BEB70E80E94471E9093AF7B8D
:100790008093AE7B00D08AE392E2EDB7FEB79283FE
:1007A00081830E94FB8881E090E09093532E809398
:1007B000522E0F900F908091EE819091EF810297D1
:1007C00019F51092532E1092522E81E892E20E9457
:1007D000148986E090E064E17CE70E94471E9093D4
:1007E000AF7B8093AE7B00D08AE392E2EDB7FEB799
:1007F000928381830E94FB8881E090E09093532E46
:100800008093522E0F900F908091EE819091EF8106
:100810000C97C9F41092532E1092522E8091F281AF
:100820000E94762F00D08AE392E2EDB7FEB7928362
:1008300081830E94FB8881E090E09093532E809307
:10084000522E0F900F908091EE819091EF8108973A
:1008500099F51092532E1092522E00D000D085EBB5
:1008600092E2EDB7FEB7928381838091927B909163
:10087000937B948383830E94FB880F900F900F904B
:100880000F908DE090E062E97BE70E94471E909315
:10089000AF7B8093AE7B00D08AE392E2EDB7FEB7E8
:1008A000928381830E94FB8881E090E09093532E95
:1008B0008093522E0F900F9000D080EF92E2EDB710
:1008C000FEB7928381830E94FB880F900F90DF9187
:1008D000CF9108952F923F924F925F926F927F92A5
:1008E0008F929F92AF92BF92CF92DF92EF92FF9240
:1008F0000F931F93DF93CF9300D000D00F92CDB70B
:10090000DEB70E94C21E8C019093AF7B8093AE7BBA
:10091000009709F466C00E94702100D000D000D07A
:10092000EDB7FEB7319629E033E2ADB7BEB7129608
:100930003C932E93119713830283958384830E94A3
:10094000FB88EDB7FEB736960FB6F894FEBF0FBE24
:10095000EDBF8091D0809091D1800E94302100D055
:1009600000D025E433E2ADB7BEB712963C932E9388
:10097000119714969C938E9313970E94FB8889E697
:1009800093E2EDB7FEB7928381838091D6809091F8
:10099000D780948383830E94FB8885EA93E2ADB776
:1009A000BEB712969C938E9311978091D8809091A8
:1009B000D98014969C938E9313970E94FB8886ECA3
:1009C00093E2EDB7FEB7928381838091DA809091B4
:1009D000DB80948383830E94FB880F900F900F909D
:1009E0000F908091D0809091D1808630910511F444
:1009F0000C94760E8730910564F48330910509F4E8
:100A000068C784309105A9F0019711F00C94F30E9A
:100A1000C7C08A30910511F40C94A90D8B30910553
:100A200011F40C942D0E099711F00C94F30E0C9404
:100A3000480DCC24DD24E4EE8E2EE3E29E2E7FE0F2
:100A4000A72E74E2B72EC6010E9410202DB73EB724
:100A5000285030400FB6F8943EBF0FBE2DBF2F5F19
:100A60003F4FADB7BEB712969C928E921197F90187
:100A700093838283E0910D82F0910E828601000FB4
:100A8000111F0C0D1D1D7801EE0CFF1CEE0CFF1C40
:100A9000EE0DFF1D80819181A281B381F9018483D4
:100AA0009583A683B7830E94FB88E0910D82F09125
:100AB0000E8200D02DB73EB72F5F3F4FADB7BEB708
:100AC0001296BC92AE9211970F5F1F4F000F111F2D
:100AD000000F111F0E0F1F1FD8014D915D916D91D9
:100AE0007C91D90112964D935D936D937C931597EC
:100AF000EE0DFF1D80859185A285B385F901868362
:100B00009783A087B1870E94FB880894C11CD11CE1
:100B10002DB73EB7265F3F4F0FB6F8943EBF0FBECE
:100B20002DBF35E0C316D10409F08DCF00D000D021
:100B300083E394E2ADB7BEB712969C938E93119760
:100B400080910B8290910C8214969C938E931397B4
:100B50000E94FB8881E594E2EDB7FEB79283818322
:100B60008091098290910A82948383830E94FB88FA
:100B70001092937B1092927B0F900F900F900F909A
:100B800087E694E20E94148989E092E860E070E0D0
:100B90000E947F5187E99BE70E940A350C94F30E6F
:100BA0008091EE819091EF81039711F40E94697614
:100BB0008091EE819091EF81049711F40E949A76D2
:100BC0008091EE819091EF81059709F0EFC08091BF
:100BD000F2819091F3819093987B8093977B90938F
:100BE000937B8093927B00D000D000D08CEA94E27B
:100BF000ADB7BEB712969C938E9311978091F281F8
:100C00009091F381A091F481B091F581EDB7FEB799
:100C100083839483A583B6830E94FB880F900F90F3
:100C20008AEC94E2ADB7BEB712969C938E9311975F
:100C30008091977B9091987B14969C938E931397B9
:100C40000E94FB8800D08CEE94E2EDB7FEB7928351
:100C500081838091997B90919A7BA0919B7BB091AD
:100C60009C7B83839483A583B6830E94FB8881E168
:100C700095E2ADB7BEB712969C938E931197809173
:100C80009D7B90919E7BA0919F7BB091A07BEDB7C7
:100C9000FEB783839483A583B6830E94FB8889E390
:100CA00095E2ADB7BEB712969C938E931197809143
:100CB000A17B9091A27BA091A37BB091A47BEDB787
:100CC000FEB783839483A583B6830E94FB888EE559
:100CD00095E2ADB7BEB712969C938E931197809113
:100CE000A57B9091A67BA091A77BB091A87BEDB747
:100CF000FEB783839483A583B6830E94FB8883E831
:100D000095E2ADB7BEB712969C938E9311978091E2
:100D1000A97B9091AA7BA091AB7BB091AC7BEDB706
:100D2000FEB783839483A583B6830E94FB880F90CC
:100D30000F9086EA95E2ADB7BEB712969C938E935C
:100D400011978091AD7B992787FD909514969C9380
:100D50008E9313970E94FB880F900F900F900F9027
:100D60000E94CB768093AD7B8F3F19F481E0809316
:100D7000AD7BEDB7FEB777970FB6F894FEBF0FBE09
:100D8000EDBFADB7BEB71196E7E9FBE787E101908C
:100D90000D928150E1F70E94E0732DB73EB7295EB6
:100DA0003F4F0FB6F8943EBF0FBE2DBF8091EE812E
:100DB0009091EF81069709F0EFC08091F2819091B8
:100DC000F3819093987B8093977B9093937B809310
:100DD000927B00D000D000D08CEA94E2ADB7BEB7D1
:100DE00012969C938E9311978091F2819091F3814A
:100DF000A091F481B091F581EDB7FEB78383948320
:100E0000A583B6830E94FB880F900F908AEC94E232
:100E1000ADB7BEB712969C938E9311978091977B36
:100E20009091987B14969C938E9313970E94FB88C5
:100E300000D08CEE94E2EDB7FEB79283818380916F
:100E4000997B90919A7BA0919B7BB0919C7B8383B3
:100E50009483A583B6830E94FB8881E195E2ADB7B8
:100E6000BEB712969C938E93119780919D7B909123
:100E70009E7BA0919F7BB091A07BEDB7FEB7838353
:100E80009483A583B6830E94FB8889E395E2ADB77E
:100E9000BEB712969C938E9311978091A17B9091EF
:100EA000A27BA091A37BB091A47BEDB7FEB7838317
:100EB0009483A583B6830E94FB888EE595E2ADB747
:100EC000BEB712969C938E9311978091A57B9091BB
:100ED000A67BA091A77BB091A87BEDB7FEB78383DB
:100EE0009483A583B6830E94FB8883E895E2ADB71F
:100EF000BEB712969C938E9311978091A97B909187
:100F0000AA7BA091AB7BB091AC7BEDB7FEB783839E
:100F10009483A583B6830E94FB880F900F9086EA86
:100F200095E2ADB7BEB712969C938E9311978091C0
:100F3000AD7B992787FD909514969C938E9313977C
:100F40000E94FB880F900F900F900F900E94CB761D
:100F50008093AD7B8F3F19F481E08093AD7BEDB73B
:100F6000FEB777970FB6F894FEBF0FBEEDBFADB7D3
:100F7000BEB71196E7E9FBE787E101900D9281503A
:100F8000E1F70E9420752DB73EB7295E3F4F0FB69F
:100F9000F8943EBF0FBE2DBF8091EE819091EF81FE
:100FA000079709F043C28091F2819091F38167E93C
:100FB0007BE70E943C7500D000D08CEC95E2ADB789
:100FC000BEB712969C938E9311978091977B9091C8
:100FD000987B14969C938E9313970E94FB880F9096
:100FE0000F900F900F904091997B50919A7B609158
:100FF0009B7B70919C7B88E79DE720E030E00E941E
:101000007A13EDB7FEB73A970FB6F894FEBF0FBE4E
:10101000EDBF319621EF35E2ADB7BEB712963C93E6
:101020002E9311972091997B30919A7B40919B7BD5
:1010300050919C7B228333834483558366837783DB
:10104000808791870E94FB88EDB7FEB73A960FB66E
:10105000F894FEBF0FBEEDBF40919D7B50919E7BEB
:1010600060919F7B7091A07B88ED9DE720E030E050
:101070000E947A132DB73EB72A5030400FB6F8942D
:101080003EBF0FBE2DBF0DB71EB70F5F1F4F20E233
:1010900036E2ADB7BEB712963C932E9311972091CE
:1010A0009D7B30919E7B40919F7B5091A07BF8016E
:1010B000228333834483558320E030E04CE053E4C3
:1010C0000E940083D80116966D937D938D939C9317
:1010D00019970E94FB88EDB7FEB73A960FB6F894C1
:1010E000FEBF0FBEEDBF4091A17B5091A27B6091EE
:1010F000A37B7091A47B88E39EE720E030E00E9410
:101100007A132DB73EB72A5030400FB6F8943EBF41
:101110000FBE2DBF0DB71EB70F5F1F4F22E536E282
:10112000ADB7BEB712963C932E9311972091A17B39
:101130003091A27B4091A37B5091A47BF801228344
:1011400033834483558320E030E048EF52E40E942B
:101150000183D80116966D937D938D939C93199777
:101160000E94FB88EDB7FEB73A960FB6F894FEBF23
:101170000FBEEDBF4091A57B5091A67B6091A77BF0
:101180007091A87B88E99EE720E030E00E947A1306
:101190002DB73EB72A5030400FB6F8943EBF0FBE71
:1011A0002DBF0DB71EB70F5F1F4F21E836E2ADB759
:1011B000BEB712963C932E9311972091A57B309148
:1011C000A67B4091A77B5091A87BF80122833383B3
:1011D0004483558320E030E04AE253E40E940183D7
:1011E000D80116966D937D938D939C9319970E94C9
:1011F000FB88EDB7FEB73A960FB6F894FEBF0FBE68
:10120000EDBF4091A97B5091AA7B6091AB7B70911F
:10121000AC7B88EF9EE720E030E00E947A132DB788
:101220003EB72A5030400FB6F8943EBF0FBE2DBFD8
:10123000EDB7FEB7319620EB36E2ADB7BEB71296EA
:101240003C932E9311972091A97B3091AA7B4091DA
:10125000AB7B5091AC7B228333834483558366837D
:101260007783808791870E94FB888091977B9091FC
:10127000987B9093937B8093927BEDB7FEB73A96E1
:101280000FB6F894FEBF0FBEEDBF87E99BE70E9443
:10129000DA72CC24DD242DED822E26E2922E99E006
:1012A000A92E97E2B92EC6010E9410202DB73EB795
:1012B000285030400FB6F8943EBF0FBE2DBF2F5FB1
:1012C0003F4FADB7BEB712969C928E921197F9011F
:1012D00093838283E0912182F09122828601000F24
:1012E000111F0C0D1D1D7801EE0CFF1CEE0CFF1CD8
:1012F000EE0DFF1D80819181A281B381F90184836C
:101300009583A683B7830E94FB88E0912182F091A8
:10131000228200D02DB73EB72F5F3F4FADB7BEB78B
:101320001296BC92AE9211970F5F1F4F000F111FC4
:10133000000F111F0E0F1F1FD8014D915D916D9170
:101340007C91D90112964D935D936D937C93159783
:10135000EE0DFF1D80859185A285B385F9018683F9
:101360009783A087B1870E94FB880894C11CD11C79
:101370002DB73EB7265F3F4F0FB6F8943EBF0FBE66
:101380002DBF35E0C316D10409F08DCF00D000D0B9
:101390008EE297E2ADB7BEB712969C938E931197EB
:1013A00080911F829091208214969C938E93139724
:1013B0000E94FB888DE497E2EDB7FEB792838183AC
:1013C00080911D8290911E82948383830E94FB886A
:1013D0000F900F900F900F908DE192E860E070E019
:1013E0000E947F518091AD7B813091F48091947BFC
:1013F0009091957B019741F00E949A7681E090E070
:101400009093957B8093947B84E697E20E94148965
:101410008091AD7B882351F40E9469761092957B70
:101420001092947B88E897E20E9414898091EE8163
:101430009091EF81099741F48CEA97E20E94148918
:101440000E94A5730E9431748091EE819091EF818A
:101450000A9711F40E9431748091EE819091EF818E
:101460000D9709F074C08BEB90E80E94E6718091B3
:10147000C1800E94BA248C01F090BE808091BF8010
:101480000E94E3242DB73EB72A5030400FB6F8949F
:101490003EBF0FBE2DBFEDB7FEB7319622ED37E24E
:1014A000ADB7BEB712963C932E9311971383028368
:1014B000F4821582978386838091C080808711860D
:1014C0000E94FB888091BD8090E0EDB7FEB73A9610
:1014D0000FB6F894FEBF0FBEEDBF9C012F713070A8
:1014E00085FF0EC08DB79EB708970FB6F8949EBFC4
:1014F0000FBE8DBFEDB7FEB731968BE098E20DC001
:101500008DB79EB708970FB6F8949EBF0FBE8DBFDC
:10151000EDB7FEB731968CE298E2ADB7BEB7129642
:101520009C938E931197338322838091BC80848314
:1015300015828091BB80868317820E94FB88EDB75D
:10154000FEB738960FB6F894FEBF0FBEEDBF809180
:10155000EE819091EF81029741F48DE498E20E9430
:10156000148984E19CE70E941D278091EE8190916F
:10157000EF810B9709F0A0C02DB73EB72251304044
:101580000FB6F8943EBF0FBE2DBFEDB7FEB7319634
:101590008BE798E2ADB7BEB712969C938E931197E6
:1015A0008091F981992787FD90959383828380911B
:1015B000FB81992787FD9095958384838091FD8198
:1015C000992787FD9095978386838091FF8199273E
:1015D00087FD90959187808780910182992787FD6B
:1015E00090959387828780910382992787FD9095B4
:1015F0009587848780910582992787FD90959787A5
:10160000868780910782992787FD9095918B808BA3
:101610000E94FB888091F2818093967BEDB7FEB7A4
:1016200039970FB6F894FEBF0FBEEDBFADB7BEB78A
:101630001196EEEEF1E88BE101900D928150E1F709
:101640000E9468328091F881992787FD9095909348
:10165000BA808093B98081E08093AC802DB73EB78B
:10166000295E3F4F0FB6F8943EBF0FBE2DBF86EDEB
:1016700098E2ADB7BEB712969C938E931197809166
:10168000967B992787FD909514969C938E9313973C
:101690000E94FB8882E199E2EDB7FEB792838183D5
:1016A0008091B9809091BA80948383830E94FB8853
:1016B0000F900F900F900F908091EE819091EF819D
:1016C0000C9721F500D000D000D080E499E2ADB7AE
:1016D000BEB712969C938E9311978091F281909150
:1016E000F381A091F481B091F581EDB7FEB78383CA
:1016F0009483A583B6830E94FB882DB73EB72A5FEB
:101700003F4F0FB6F8943EBF0FBE2DBF8091EE81C4
:101710009091EF810E97B1F40E94E31F00D000D0AA
:101720002CE639E2ADB7BEB712963C932E931197D3
:1017300014969C938E9313970E94FB880F900F90A2
:101740000F900F908091EE819091EF81019731F48D
:1017500082EA99E20E9414890E9450488091EE81A9
:101760009091EF810F9711F58EEB99E20E94148909
:101770008091F0819091F1810E94102000D000D0E2
:1017800029EE39E2EDB7FEB7328321839483838358
:101790000E94FB880F900F900F900F908091F08126
:1017A0009091F1816EEE7FEF0E94A2578091EE81C1
:1017B0009091EF81409731F580E29AE20E9414897E
:1017C0008091F0819091F1810E94102000D000D092
:1017D0002AE43AE2ADB7BEB712963C932E93119726
:1017E00014969C938E9313970E94FB880F900F90F2
:1017F0000F900F908091F0819091F1816EEE7FEFCC
:101800000E942A5A8091EE819091EF81419711F5C3
:1018100084E79AE20E9414898091F0819091F1818D
:101820000E94102000D000D021EA3AE2EDB7FEB7C6
:1018300032832183948383830E94FB880F900F90CF
:101840000F900F908091F0819091F1816EEE7FEF7B
:101850000E94CF588091EE819091EF81429709F0DC
:10186000C2C200D000D000D0EDB7FEB73196809153
:10187000F0819091F1812CE63DE7ADB7BEB71296AD
:101880003C932E93119725EB30E8338322832AE68D
:101890003DE7358324836BEC70E840E75DE721EB9F
:1018A00030E80DEA10E8F3ECEF2EF0E8FF2EE7EC5D
:1018B000CE2EE0E8DE2EB8EAAB2EB0E8BB2EA0E1DB
:1018C0008A2EACE79A2E0E947056EDB7FEB7369678
:1018D000B0C100D000D08DE497E2ADB7BEB712968C
:1018E0009C938E9311978091098290910A8214960D
:1018F0009C938E9313970E94FB888EE297E2EDB73C
:10190000FEB79283818380910B8290910C829483A5
:1019100083830E94FB88AA24BB24882499240F90E7
:101920000F900F900F90F1ED2F2EFAE23F2EEDED7C
:101930004E2EE6E25E2E79E0672E77E2772E95C096
:1019400000D000D0ADB7BEB712963C922E92119740
:101950001496BC92AE9213970E94FB88CC24DD248F
:101960000F900F900F900F90C6010E941020EDB7BE
:10197000FEB738970FB6F894FEBF0FBEEDBF2DB778
:101980003EB72F5F3F4F52824182D90113969C93FD
:101990008E931297E0910D82F0910E82E80DF91D61
:1019A0008601000F111F0C0D1D1D7801EE0CFF1C90
:1019B000EE0CFF1CEE0DFF1D80819181A281B38191
:1019C000F90184839583A683B7830E94FB88E09105
:1019D0000D82F0910E82E80DF91D00D02DB73EB7B3
:1019E0002F5F3F4FADB7BEB712967C926E921197A4
:1019F0000F5F1F4F000F111F000F111F0E0F1F1F32
:101A0000D8014D915D916D917C91D90112964D93C4
:101A10005D936D937C931597EE0DFF1D80859185E9
:101A2000A285B385F90186839783A087B1870E9439
:101A3000FB880894C11CD11C2DB73EB7265F3F4FD1
:101A40000FB6F8943EBF0FBE2DBF35E0C316D104CC
:101A500009F08ACF8DE390E0880E991E9BE0A916CD
:101A6000B10459F00894A11CB11C80910982909195
:101A70000A82A816B9060CF463CF86EF9AE20E9498
:101A800014896091B9807091BA8089E092E85EC053
:101A9000E091D280F091D380E080F18000D000D03E
:101AA00084E39BE2ADB7BEB712969C938E931197D9
:101AB0001496FC92EE9213970E94FB8800E010E0CF
:101AC0000F900F900F900F903DE4C32E3BE2D32E6A
:101AD0002AC000D000D000D0ADB7BEB71196EDB788
:101AE000FEB7D282C18213961C930E931297C8013F
:101AF000880F991FE091D280F091D380E80FF91FF1
:101B00008081918115969C938E9314970E94FB88F7
:101B10000F5F1F4F2DB73EB72A5F3F4F0FB6F894A8
:101B20003EBF0FBE2DBF0E151F059CF28091D280C7
:101B30009091D3800E9453758BE69BE20E9414899A
:101B40006091B9807091BA8085E292E80E949654C3
:101B50004AC187EA9BE20E9414892091DC8130917E
:101B6000DD814091DE815091DF816091E081709153
:101B7000E1818091E2819091E3810E94A272809143
:101B8000E2810E94BA248C01F090DF818091E08193
:101B90000E94E324ADB7BEB71A970FB6F894BEBF44
:101BA0000FBEADBFEDB7FEB731962BEC3BE2129600
:101BB0003C932E93119713830283F48215829783AB
:101BC00086838091E181808711860E94FB888091C5
:101BD000DE8190E0EDB7FEB73A960FB6F894FEBFFF
:101BE0000FBEEDBF9C012F71307085FF28C08DB7EF
:101BF0009EB708970FB6F8949EBF0FBE8DBFEDB786
:101C0000FEB731968BE098E2ADB7BEB712969C93C3
:101C10008E931197338322838091DD818483158293
:101C20008091DC81868317820E94FB88EDB7FEB726
:101C300038960FB6F894FEBF0FBEEDBFD4C08DB777
:101C40009EB708970FB6F8949EBF0FBE8DBFEDB735
:101C5000FEB731968CE298E2D7CF00D000D0EDB736
:101C6000FEB731968CE09CE2ADB7BEB712969C935E
:101C70008E93119780911582828313820E94FB8834
:101C80000F900F900F900F9020910F823091108243
:101C9000409111825091128260911382709114824E
:101CA000809115820E941D7200E41CE9C801019711
:101CB000F1F7CE0101960E94C871C8010197F1F7B2
:101CC00080911482882311F080EA01C080E28A8327
:101CD00081E090E09093917B8093907B49815A8141
:101CE0006B817C818D810E9454727DC000D000D0B8
:101CF00000D0EDB7FEB7319600E41CE2ADB7BEB739
:101D000012961C930E9311971382128280915E7F1C
:101D100090915F7F958384830E94FB88EDB7FEB727
:101D20003196ADB7BEB712961C930E93119781E012
:101D300090E0938382838091A27F9091A37F95838B
:101D400084830E94FB88EDB7FEB73196ADB7BEB76E
:101D500012961C930E93119782E090E093838283F6
:101D60008091E67F9091E77F958384830E94FB8832
:101D7000EDB7FEB73196ADB7BEB712961C930E9372
:101D8000119783E090E09383828380912A809091E1
:101D90002B80958384830E94FB88EDB7FEB7319634
:101DA000ADB7BEB712961C930E93119784E090E0E6
:101DB0009383828380916E8090916F8095838483DA
:101DC0000E94FB88EDB7FEB736960FB6F894FEBFBB
:101DD0000FBEEDBF84E59FE70E94A629892B19F06D
:101DE00080E00E94ED2A0F900F900F900F900F90BF
:101DF000CF91DF911F910F91FF90EF90DF90CF90E7
:101E0000BF90AF909F908F907F906F905F904F901A
:101E10003F902F9008952F923F924F925F926F9232
:101E20007F928F929F92AF92BF92CF92DF92EF926A
:101E3000FF920F931F93DF93CF93CDB7DEB7299710
:101E40000FB6F894DEBF0FBECDBF8091CF8081600A
:101E50008093CF808091CF8082608093CF8080916B
:101E6000CF8084608093CF808091CF808860809382
:101E7000CF808091CF8080618093CF800E942D257C
:101E80000E94A76D0E944B6F0E94857286E59EE2BC
:101E90009093308280932F8290933282809331820C
:101EA00084E69EE2909334828093338282E00E94A3
:101EB00051770E94E17680E00E9451770E94E1769E
:101EC00081E00E9451770E94E17681E090E00E94DB
:101ED000637780E090E00E94637782E090E00E9468
:101EE000637700D000D08091338290913482ADB777
:101EF000BEB712969C938E93119781E993E0149646
:101F00009C938E9313970E9486880F900F900F904A
:101F10000F900E94612E892B69F000D000D0809133
:101F2000338290913482EDB7FEB79283818389E743
:101F300093E034C080E00E94E02B80E090E00E94BB
:101F400063770E94453282E00E94517700D000D032
:101F50008091338290913482ADB7BEB712969C9334
:101F60008E93119786E593E014969C938E93139726
:101F70000E9486880F900F900F900F900E94FD5442
:101F8000892BC1F000D000D08091338290913482AF
:101F9000EDB7FEB7928381838EE393E094838383CE
:101FA0000E9486880F900F900F900F9080E090E035
:101FB0000E940E8A82E090E00E94637781E00E9496
:101FC000517700D000D08091338290913482ADB7A8
:101FD000BEB712969C938E9311978AE293E0149663
:101FE0009C938E9313970E9486880F900F900F906A
:101FF0000F900E94504881E090E00E9463770E9419
:102000003174E0912382F0912482E080F180E11428
:10201000F10499F100E010E033E7C32E3CE2D32E47
:1020200029C000D000D000D0ADB7BEB71196EDB733
:10203000FEB7D282C18213961C930E931297C801E9
:10204000880F991FE0912382F0912482E80FF91FF5
:102050008081918115969C938E9314970E94FB88A2
:102060000F5F1F4F8DB79EB706960FB6F8949EBFB1
:102070000FBE8DBF0E151F05A4F28FEF8CBB0E9403
:10208000215F789480EA9CE20E94148960913382F7
:102090007091348286EC9CE20E94D08880E00E949D
:1020A0005177EE24FF2400E010E092E0C92ED12CFD
:1020B000CC0EDD1E88EF282E8CE2382EB2EE4B2E91
:1020C000BCE25B2E3E010894611C711CADE68A2EB9
:1020D000ADE29A2EF9E5AF2EFDE2BF2E02C000E080
:1020E00010E08091CF8080FD39C08091CF808160E9
:1020F0008093CF808091CF8081FD15C08091CF806B
:1021000082608093CF8080E090E00E94637782E0DD
:102110000E9451770E946A0482E090E00E946377F7
:1021200080E00E9451778091CF8082FD17C080911E
:10213000CF8084608093CF8080E090E00E946377BE
:1021400081E00E9451770E946C030E94E17681E059
:1021500090E00E94637780E00E9451778091CF8069
:1021600083FD5CC08091CF8088608093CF8008948D
:10217000E11CF11C93E2E916F10409F04FC06091F3
:1021800033827091348286EC9CE20E94D088C60132
:102190000E94E6718C8190E02091338230913482EC
:1021A000AC014F71507085FF12C0ADB7BEB71A9722
:1021B0000FB6F894BEBF0FBEADBFEDB7FEB73196F8
:1021C00012963C932E9311975382428213C08DB77F
:1021D0009EB70A970FB6F8949EBF0FBE8DBFEDB79E
:1021E000FEB73196ADB7BEB712963C932E931197BA
:1021F00033822282558344838B81868317828A812E
:10220000808711860E947588EE24FF24EDB7FEB703
:102210003A960FB6F894FEBF0FBEEDBF8091CF8007
:1022200084FD5FCF8091CF8080618093CF8080914B
:10223000907B9091917B892B09F453CF0F5F1F4FB7
:102240000330110509F04DCFC3010E94D771898178
:1022500085FF45CFC6010E94E6711092917B1092D6
:10226000907B81E090E00E94EB768EE09DE20E9400
:102270001489809115820E949071609133827091CF
:10228000348285E49DE20E94D0888C8190E0209188
:10229000338230913482AC014F71507085FF14C08D
:1022A0008DB79EB70A970FB6F8949EBF0FBE8DBF2D
:1022B000EDB7FEB73196ADB7BEB712963C932E93ED
:1022C0001197B382A28213C08DB79EB70A970FB63B
:1022D000F8949EBF0FBE8DBFEDB7FEB73196ADB778
:1022E000BEB712963C932E931197938282825583A8
:1022F00044838B81868317828A81808711860E941E
:10230000758800E010E0EDB7FEB73A960FB6F89486
:10231000FEBF0FBEEDBFE5CE1F920F920FB60F921C
:102320000BB60F9211242F933F934F935F936F93AC
:102330007F938F939F93AF93BF93EF93FF9381E826
:102340009DE20E9414890E945D5EFF91EF91BF9112
:10235000AF919F918F917F916F915F914F913F913D
:102360002F910F900BBE0F900FBE0F901F901895DE
:102370001F920F920FB60F920BB60F9211242F934C
:102380003F934F935F936F937F938F939F93AF93FD
:10239000BF93EF93FF938CE99DE20E9414890E9402
:1023A000BF5EFF91EF91BF91AF919F918F917F9110
:1023B0006F915F914F913F912F910F900BBE0F90B6
:1023C0000FBE0F901F9018951F920F920FB60F928D
:1023D0000BB60F9211242F933F934F935F936F93FC
:1023E0007F938F939F93AF93BF93EF93FF938091CE
:1023F000522E9091532E0197D9F562E370E080E060
:1024000090E00E9400778091CF808E7F8093CF8074
:102410008091000186FD1AC08091000185FD16C0E3
:102420000E94C03681E090E00E94EB7687EB9DE24F
:102430000E94148960913382709134828CEE9DE207
:102440000E94D08881E090E00E940E8A8091000175
:1024500085FD05C08091CF808D7F8093CF80809156
:10246000000186FD05C08091CF808B7F8093CF8057
:10247000FF91EF91BF91AF919F918F917F916F915C
:102480005F914F913F912F910F900BBE0F900FBE18
:102490000F901F9018951F920F920FB60F920BB6C8
:1024A0000F9211242F933F934F935F936F937F93DA
:1024B0008F939F93AF93BF93EF93FF930E94C03688
:1024C00081E090E00E94EB7681E00E94517782E209
:1024D0009EE20E94148900D000D0809133829091B6
:1024E0003482EDB7FEB7928381838DEA93E09483C3
:1024F00083830E9486880F900F900F900F9081E049
:1025000090E00E940E8A8F929F92AF92BF92CF92DC
:10251000DF92EF92FF920F931F936C014A015B01D0
:10252000FC01648D758D882777FD8095982F0E941A
:1025300004847B018C01F601668D778D882777FDF9
:102540008095982F0E9404849B01AC01C801B701BB
:102550000E9469837B018C01C501B4012BED3FE032
:1025600049EC50E40E9469839B01AC01C801B701AA
:102570000E940B854B015C01F601648575858827F7
:1025800077FD8095982F0E9404847B018C01F601D1
:1025900062857385882777FD8095982F0E94048433
:1025A0009B01AC01C801B7010E940B859B01AC01E6
:1025B000C501B4010E940B851F910F91FF90EF9010
:1025C000DF90CF90BF90AF909F908F9008958F92A3
:1025D0009F92AF92BF92CF92DF92EF92FF920F93B2
:1025E0001F936C019A01AB01CA01B9010E940183DA
:1025F0002BED3FE049E450E40E940B854B015C0168
:10260000F601668D778D882777FD8095982F0E943B
:1026100004847B018C01F601648D758D882777FD1C
:102620008095982F0E9404849B01AC01C801B701DA
:102630000E9469839B01AC01C501B4010E940B8516
:102640004B015C01F60162857385882777FD8095D3
:10265000982F0E9404847B018C01F60164857585A6
:10266000882777FD8095982F0E9404849B01AC01F8
:10267000C801B7010E940B859B01AC0160E070E0CE
:1026800080E89FE30E9469839B01AC01C501B4010E
:102690000E940B851F910F91FF90EF90DF90CF90DC
:1026A000BF90AF909F908F90089525E33AEF4EE84A
:1026B0005CE30E940B85089525E33AEF4EE85CE366
:1026C0000E9469830895282F22952F709AE0299FF0
:1026D000900111248F70820F0895282F6AE00E94C4
:1026E0008D85382F3295307F822F0E948D85832FE4
:1026F000890F0895CF93DF93EC0121303105A1F0CC
:102700002230310569F1232B29F060E070E080E888
:102710009FEB43C0CB01BA010E940484AB01BC0112
:10272000CE010E94E71237C0CB01BA010E94048497
:1027300020E030E040E05FE30E94008320E030E0F2
:1027400040E857E30E940B8522E539E44DE15AE366
:102750000E946983AB01BC01CE010E94E7121BC03D
:10276000CB01BA010E94048420E030E040E05FE346
:102770000E94008320E030E040E857E30E940B8590
:1027800027E036E441EC54E30E946983AB01BC01CD
:10279000CE010E94E7120E945C13DF91CF91089551
:1027A00022E539E44DE15AE30E940B8522E539E444
:1027B0004DE15AE30E940B8520E030E040E857E409
:1027C0000E940B8520E030E040E05FE30E9401833F
:1027D0000E943F840E94D1839B01AC01CA010895ED
:1027E00022E539E44DE15AE30E940B8520E030E018
:1027F00040E857E40E940B8520E030E040E05FE3D2
:102800000E9401830E943F840E94D1839B01AC01FE
:10281000CA01089520E030E040E05FE30E940183B8
:102820000E943F840E94D1839B01AC01CA0108959C
:102830000F931F93CF93DF938C01E901CB01BA0172
:1028400025E33AEF4EE85CE30E940B85AB01BC0147
:10285000C8010E948312C130D10569F0C230D10590
:1028600069F0CD2B29F02FEF3FEF4FEF5FEF0AC05C
:102870000E940A1405C00E94F01302C00E94D013E7
:102880009B01AC01B901CA01DF91CF911F910F915A
:102890000895FC01DB011092070110920A0180915A
:1028A00002018B7F8093020120E030E007C08FEFB0
:1028B0002E3F380719F42AE030E022C08091000151
:1028C0002F5F3F4F87FDF3CF809102018F7E809372
:1028D000020185E08A95F1F7309719F080910601A1
:1028E0008083809109018C938091020180618093A3
:1028F00002018091020184608093020120E030E0B7
:10290000C9010895982F8FEF80930A0180930701E2
:10291000809102018B7F809302018091000187FDED
:10292000FCCF9093080160930B0180910201877F97
:102930008093020185E08A95F1F780910201886019
:10294000809302018091020184608093020180E003
:1029500090E00895EF92FF920F931F93CF93DF9330
:102960007B018C01C0E0D0E0F8016081CE010196CE
:102970008E159F0511F480E002C0F80181810E944C
:10298000821422960E5F1F4FCE15DF056CF3DF9188
:10299000CF911F910F91FF90EF900895EF92FF92CA
:1029A0000F931F93CF93DF937B01EC0100E010E0C6
:1029B000C80101968E159F0519F480E090E002C0D1
:1029C000CE010196BE010E9449140E5F1F4F229650
:1029D0000E151F056CF3DF91CF911F910F91FF90A2
:1029E000EF900895CF93DF939C01EB0181E0888302
:1029F000898341E050E05B834A831D821C8260E250
:102A000070E07B876A8788EC90E09D878C8780EEFA
:102A100091E09F878E8788EC90E0A0E0B0E088A3EB
:102A200099A3AAA3BBA38EE190E0998B888B86E142
:102A300090E09B8B8A8B81E493E09D8B8C8B82E66C
:102A400090E09F8B8E8B82E090E0998F888F80E062
:102A500090E0A4E1B0E088A799A7AAA7BBA782E16C
:102A600093E0A0E0B0E08CA39DA3AEA3BFA381E55B
:102A700097EFA1E0B0E08CA79DA7AEA7BFA780E02D
:102A800090E0A5E0B0E08CAB9DABAEABBFAB83E319
:102A900093E3A0E0B0E088AF99AFAAAFBBAF85ECFD
:102AA00090E0A0E0B0E088AB99ABAAABBBAB1B8ECB
:102AB0001A8E5D8F4C8F5F8F4E8F2530310509F454
:102AC00078C126303105C4F42230310509F4CBC079
:102AD0002330310544F42115310559F121303105F8
:102AE00009F06BC173C02330310509F405C12430EE
:102AF000310509F062C12FC12830310509F459C1EF
:102B0000293031054CF42630310509F452C1273003
:102B1000310509F052C14DC12A30310509F449C1CE
:102B20002A3031050CF445C12B30310509F045C17F
:102B300040C17D876C8783E090E0998F888F87EE16
:102B400096E29D8F8C8F88EE93E09F8F8E8FCE01C3
:102B500044E553EA6FE872E421E030E00E94181483
:102B60006CAB7DAB8EAB9FABCE014CEB54E767E516
:102B700072E421E030E00E94181468AF79AF8AAFA8
:102B80009BAFCE0140E050E06CE872E421E030E021
:102B90000E9418146CAF7DAF8EAF9FAFCE014DE693
:102BA00057E66CE672E422E030E00E941814C05C44
:102BB000DF4F688379838A839B83C054D0408AE740
:102BC00090E09F838E8388E79FEF4AC08FEF9FEF4F
:102BD0009B8F8A8F89EF9DE29D8F8C8F84E690E09A
:102BE0009F8F8E8FCE0144E85DE067E270E421E0C4
:102BF00030E00E9418146CAB7DAB8EAB9FABCE0166
:102C000043E65FE769E57FE321E030E00E941814C6
:102C100068AF79AF8AAF9BAFCE0140E050E060EA89
:102C200071E421E030E00E9418146CAF7DAF8EAFEC
:102C30009FAFCE014AE555EF6FE171E422E030E04D
:102C40000E941814C05CDF4F688379838A839B835A
:102C5000C054D0408AE090E09F838E8384E79FEF4A
:102C600099878887AAC05B8F4A8F8DE19EE29D8FEE
:102C70008C8F84E690E09F8F8E8FCE014CEF58E1D1
:102C80006BE97FE321E030E00E9418146CAB7DAB70
:102C90008EAB9FABCE0149E354EB68E17FE321E0CB
:102CA00030E00E94181468AF79AF8AAF9BAFCE01B5
:102CB00040E050E060EA71E421E030E00E94181446
:102CC0006CAF7DAF8EAF9FAFCE0149E25BEC6FE1A1
:102CD00071E422E030E00E941814C05CDF4F68838A
:102CE00079838A839B83C054D04088E790E09F8398
:102CF0008E8382E89FEFB4CF5B8F4A8F80E29FE4A0
:102D00009D8F8C8F80E197E29F8F8E8FCE0147ED54
:102D100053EC68E972E421E030E00E9418146CAFD3
:102D20007DAF8EAF9FAFCE014CED57E564E672E408
:102D300022E030E00E941814C05CDF4F6883798382
:102D40008A839B83C054D0408EEA90E09F838E8319
:102D50008CEE9FEF85CF19828FE295E09D8F8C8F4F
:102D600088EE93E09F8F8E8FCE014AEF5EEF6FEE7D
:102D700072E421E030E00E9418146CAF7DAF8EAF9A
:102D80009FAFCE0144E351E969E672E422E030E00E
:102D90000E941814C05CDF4F688379838A839B8309
:102DA000C054D04088E691E09F838E8319861886B0
:102DB00004C0188219821D821C82DF91CF91089570
:102DC0000F931F93CF93DF938C01C0E0D0E0CE012F
:102DD000B8010E94F21421960C5B1F4FC530D1053B
:102DE000B1F7DF91CF911F910F9108951092473065
:102DF000109246308BE190E09093493080934830B8
:102E000010924B3010924A3010925B3010925A3030
:102E100086E090E090934D3080934C3081E090E0DC
:102E2000909351308093503022E030E03093533013
:102E300020935230309355302093543088E090E006
:102E400090935730809356303093613020936030A8
:102E500008950F931F93CF93DF938C01EB01CA0169
:102E60000397029718F520E030E0A0E0B0E0FE0103
:102E7000E20FF31F8081A80FB11D2F5F3F4F243059
:102E80003105A9F76C817D8120E030E0A801445034
:102E9000504008C0FB01E20FF31F8081A80FB11D55
:102EA0002F5F3F4F24173507ACF32AC04830510538
:102EB00029F020E030E0A0E0B0E018C020E030E0F1
:102EC000A0E0B0E0FE01E20FF31F8081A80FB11D6A
:102ED0002F5F3F4F26303105A9F712C0FE01E20FE8
:102EE000F31F8081A80FB11D2F5F3F4F20173107BF
:102EF000ACF34D30510521F4109711F4A1E0B0E08E
:102F0000CD01DF91CF911F910F910895CF93DF9362
:102F1000EA012830310519F448E050E001C0A90168
:102F20000E94291720E030E08C179D0711F421E062
:102F300030E0C901DF91CF910895CF93DF93EC0189
:102F4000BC0120E030E00DC0FE01E20FF31FA091B4
:102F50001682B0911782A20FB31F8C9180832F5FCE
:102F60003F4F2830310581F7E881F981EE30F105D6
:102F700018F023E030E024C0EE0FFF1FEA5BFF4CA7
:102F80002A813B8180819181281739071CF427E031
:102F900030E016C04E815F8188E090E028E030E0AC
:102FA0000E948617892B19F426E030E009C08C8135
:102FB0009D81892B19F020E030E002C025E030E04F
:102FC000C901DF91CF9108950F931F93CF93DF93A2
:102FD000EC018B016A817B816115710519F422E096
:102FE00030E029C08C819D81892B19F120E030E0EF
:102FF0000DC0F801E20FF31FA0911682B091178265
:10300000A20FB31F8C9180832F5F3F4F2617370786
:1030100084F3288139812C30310541F04C815D8168
:10302000CB01B8010E948617019719F420E030E027
:1030300002C025E030E0C901DF91CF911F910F91CF
:103040000895CF93DF93EC01FB011D821C821F8248
:103050001E82798368835B834A836E3071051CF01E
:1030600023E030E01EC0141615061CF027E030E007
:1030700018C06C30710519F481E090E005C0CA01F8
:10308000B901AF010E9429179D838C8388E090E0ED
:10309000BE0148E050E00E9429179F838E8320E004
:1030A00030E0C901DF91CF91089562E070E00E94A5
:1030B00099859C01009711F021E030E0C901089545
:1030C0008330910509F1843091054CF481309105EC
:1030D00091F082309105ACF4892B81F024C08530C9
:1030E0009105C1F08530910594F086309105A9F0E5
:1030F0000797C9F415C022E030E017C021E030E0A6
:1031000014C024E030E011C028E030E00EC020E11F
:1031100030E00BC020E230E008C020E430E005C021
:1031200020E830E002C020E030E0C9010895AF920D
:10313000BF92CF92DF92EF92FF920F931F93CF93A4
:10314000DF938C01EB017A01433051050CF442C04E
:103150004530510534F048305105E1F520E030E0CC
:1031600011C0DB0128E030E01BC0E0911882F09133
:103170001982E20FF31FDE01A20FB31F8C9180832F
:103180002F5F3F4F2830310581F764C0E0911882EE
:10319000F0911982E20FF31F8D9180832F5F3F4FD3
:1031A0002C30310599F7AC81BD812CE030E00AC0AC
:1031B000E0911882F0911982E20FF31F8D918083C4
:1031C0002F5F3F4FF801828193810C9628173907B2
:1031D0007CF340C0D8011296CD90DC901397E8E0C4
:1031E000F0E0CE0EDF1E8E01C8E0D0E092E7A92EFF
:1031F0009EE2B92E2CC0E0911882F0911982EC0F5A
:10320000FD1FD8018C918083BDE0EB16F104E1F441
:1032100000D000D000D0EDB7FEB73196ADB7BEB745
:103220001296BC92AE921197D383C283D8018C912F
:10323000848315820E94FB88EDB7FEB736960FB6E1
:10324000F894FEBF0FBEEDBF21960F5F1F4FCC1548
:10325000DD058CF2DF91CF911F910F91FF90EF90E0
:10326000DF90CF90BF90AF9008952F923F924F92F2
:103270005F926F927F928F929F92AF92BF92CF9206
:10328000DF92EF92FF920F931F93DF93CF9300D0C3
:10329000CDB7DEB700D000D08EEA9EE2EDB7FEB724
:1032A000928381838091098290910A82948383839F
:1032B0000E94FB8881E09FE2EDB7FEB79283818395
:1032C00080910B8290910C82948383830E94FB886F
:1032D00088249924AA24BB240F900F900F900F905C
:1032E000E0E02E2EE0E33E2E73E4472E70E3572EEF
:1032F0003E010894611C711CD5C00894811C911C6E
:1033000000D000D028E33FE2EDB7FEB7328321833F
:10331000948283820E94FB88CC24DD240F900F903E
:103320000F900F90C6010E9410204DB75EB7485015
:1033300050400FB6F8945EBF0FBE4DBF2DB73EB7DD
:103340002F5F3F4F4FE75FE2EDB7FEB752834183F8
:10335000F90193838283E0910D82F0910E82EA0D50
:10336000FB1D8601000F111F0C0D1D1D7801EE0CB9
:10337000FF1CEE0CFF1CEE0DFF1D80819181A281D0
:10338000B381F90184839583A683B7830E94FB8868
:103390002DB73EB7285F3F4F0FB6F8943EBF0FBE24
:1033A0002DBFC6010E9410204DB75EB74850504057
:1033B0000FB6F8945EBF0FBE4DBF2DB73EB72F5F5F
:1033C0003F4F4FEB5FE2EDB7FEB752834183F90108
:1033D00093838283E0910D82F0910E82EA0DFB1DB2
:1033E0000F5F1F4F000F111F000F111FE00FF11F84
:1033F00080819181A281B381F90184839583A68321
:10340000B7830E94FB882DB73EB7285F3F4F0FB6AA
:10341000F8943EBF0FBE2DBFC6010E9410204DB7CD
:103420005EB7485050400FB6F8945EBF0FBE4DBF18
:103430002DB73EB72F5F3F4FEDB7FEB732822182E7
:10344000F90193838283E0910D82F0910E82EA0D5F
:10345000FB1DEE0DFF1D80859185A285B385F901C9
:1034600084839583A683B7830E94FB880F900F9077
:103470000F900F90EDB7FEB7528241827482638243
:103480000E9449890894C11CD11C0F900F900F9085
:103490000F90F5E0CF16D10409F044CF2DE330E0D2
:1034A000A20EB31E8091098290910A828816990615
:1034B0000CF423CF0F900F90CF91DF911F910F91BC
:1034C000FF90EF90DF90CF90BF90AF909F908F9044
:1034D0007F906F905F904F903F902F900895CF9284
:1034E000DF92EF92FF920F931F93DF93CF93CDB7AD
:1034F000DEB728970FB6F894DEBF0FBECDBF6C01C4
:103500008AE090E00E945518892B21F4AAE0EA2E67
:10351000F12C03C0FBE0EF2EF12CC7010E94F41F39
:1035200090931982809318828E010F5F1F4FC801FC
:103530006DE070E042E050E096010E942118C80161
:10354000B80148E050E00E949718C801B6014DE06C
:1035500050E00E949718C70128960FB6F894DEBF76
:103560000FBECDBFCF91DF911F910F91FF90EF90D4
:10357000DF90CF900895AF92BF92CF92DF92EF92FB
:10358000FF920F931F93DF93CF93CDB7DEB72897AA
:103590000FB6F894DEBF0FBECDBF5C01FC01808189
:1035A0009181A281B3810596A11DB11D02E0880F12
:1035B000991FAA1FBB1F0A95D1F77C010E945518BD
:1035C000892B41F00894E11CF11C17EFC12E1FEF6D
:1035D000D12E04C0B8EFCB2EBFEFDB2ECE0CDF1CFC
:1035E000C7010E94F41F90931982809318828E0164
:1035F0000F5F1F4FC8016CE070E0A60195010E94AB
:103600002118C801B80148E050E00E949718C8018D
:10361000B5014CE050E00E949718C70128960FB6FC
:10362000F894DEBF0FBECDBFCF91DF911F910F91F8
:10363000FF90EF90DF90CF90BF90AF900895CF9222
:10364000DF92EF92FF920F931F93DF93CF93CDB74B
:10365000DEB728970FB6F894DEBF0FBECDBF6C0162
:103660008FE090E00E945518892B21F49FE0E92E0D
:10367000F12C03C080E1E82EF12CC7010E94F41F59
:1036800090931982809318828E010F5F1F4FC8019B
:103690006BE070E047E050E096010E942118C801FD
:1036A000B80148E050E00E949718C801B6014BE00D
:1036B00050E00E949718C70128960FB6F894DEBF15
:1036C0000FBECDBFCF91DF911F910F91FF90EF9073
:1036D000DF90CF900895CF92DF92EF92FF920F93F9
:1036E0001F93DF93CF93CDB7DEB728970FB6F8942B
:1036F000DEBF0FBECDBF6C0180E190E00E94551887
:10370000892B21F430E1E32EF12C03C021E1E22EDC
:10371000F12CC7010E94F41F9093198280931882A4
:103720008E010F5F1F4FC8016AE070E048E050E073
:1037300096010E942118C801B80148E050E00E949B
:103740009718C801B6014AE050E00E949718C701D7
:1037500028960FB6F894DEBF0FBECDBFCF91DF9194
:103760001F910F91FF90EF90DF90CF900895AF924F
:10377000BF92CF92DF92EF92FF920F931F93DF934E
:10378000CF93CDB7DEB728970FB6F894DEBF0FBE44
:10379000CDBF5C01FC01E080F18084E090E0E80EA8
:1037A000F91EEE0CFF1CC7010E945518892B41F031
:1037B0000894E11CF11C57EFC52E5FEFD52E04C015
:1037C00048EFC42E4FEFD42ECE0CDF1CC7010E9451
:1037D000F41F90931982809318828E010F5F1F4F00
:1037E000C80169E070E0A60195010E942118C80196
:1037F000B80148E050E00E949718C801B50149E0BF
:1038000050E00E949718C70128960FB6F894DEBFC3
:103810000FBECDBFCF91DF911F910F91FF90EF9021
:10382000DF90CF90BF90AF900895CF92DF92EF924C
:10383000FF920F931F93DF93CF93CDB7DEB72897F7
:103840000FB6F894DEBF0FBECDBFD82EC92E80E1D3
:1038500090E00E945518892B21F4E0E1EE2EF12C26
:1038600003C071E1E72EF12CC7010E94F41F909371
:103870001982809318828E010F5F1F4FC80167E085
:1038800070E048E050E02D2D3C2D0E942118C80129
:10389000B80148E050E00E949718C8016D2D7C2DBA
:1038A00047E050E00E949718C70128960FB6F89499
:1038B000DEBF0FBECDBFCF91DF911F910F91FF9063
:1038C000EF90DF90CF900895CF92DF92EF92FF922A
:1038D0000F931F93DF93CF93CDB7DEB728970FB623
:1038E000F894DEBF0FBECDBFD82EC92E8CE591E077
:1038F0000E945518892B29F4ACE5EA2EA1E0FA2E96
:1039000004C0FDE5EF2EF1E0FF2EC7010E94F41F79
:1039100090931982809318828E010F5F1F4FC80108
:1039200066E070E044E551E02D2D3C2D0E94211809
:10393000C801B80148E050E00E949718C8016D2DF9
:103940007C2D46E050E00E949718C70128960FB6DC
:10395000F894DEBF0FBECDBFCF91DF911F910F91C5
:10396000FF90EF90DF90CF9008958F929F92AF924B
:10397000BF92CF92DF92EF92FF920F931F93DF934C
:10398000CF93CDB7DEB728970FB6F894DEBF0FBE42
:10399000CDBF982E892E5A018DE390E0689F80015B
:1039A000699F100D789F100D11248CE0E82EF12CEA
:1039B000E00EF11EC7010E945518B4E0CB2ED12CA9
:1039C000C00ED11E892B29F078018DE090E0E80E21
:1039D000F91EC7010E94F41F9093198280931882E8
:1039E0008E010F5F1F4FC801B501A601292D382D8B
:1039F0000E942118C801B80148E050E00E949718C1
:103A0000C801692D782D43E050E00E949718C70146
:103A100028960FB6F894DEBF0FBECDBFCF91DF91D1
:103A20001F910F91FF90EF90DF90CF90BF90AF90DC
:103A30009F908F900895CF92DF92EF92FF920F9315
:103A40001F93DF93CF93CDB7DEB728970FB6F894C7
:103A5000DEBF0FBECDBFD82EC92E83E290E00E94FC
:103A60005518892B21F024E2E22EF12C03C093E2B9
:103A7000E92EF12CC7010E94F41F909319828093C4
:103A800018828E010F5F1F4FC80161E070E04BE1AB
:103A900050E02D2D3C2D0E942118C801B80148E0AE
:103AA00050E00E949718C8016D2D7C2D41E050E038
:103AB0000E949718C70128960FB6F894DEBF0FBE74
:103AC000CDBFCF91DF911F910F91FF90EF90DF90CD
:103AD000CF900895CF92DF92EF92FF920F931F93B2
:103AE000DF93CF93CDB7DEB728970FB6F894DEBF3C
:103AF0000FBECDBF7C0109831A832B833C834D838A
:103B00005E836F8378870B811C81CD80DE80E0919E
:103B10001682F09117828081F7018083E0911682EE
:103B2000F09117828181F7018183E0911682F091F3
:103B300017828281F7018283E0911682F0911782C9
:103B40008381F7018383208131818DE390E0AC0193
:103B5000249FC001259F900D349F900D11240E9439
:103B6000F41FF70184839583DC0124E030E00AC070
:103B7000E0911682F0911782E20FF31F80818D93FE
:103B80002F5F3F4F201731079CF3C801B701A601F3
:103B900023E030E00E948617892B19F020E030E006
:103BA00002C025E030E0C90128960FB6F894DEBFC8
:103BB0000FBECDBFCF91DF911F910F91FF90EF907E
:103BC000DF90CF900895CF92DF92EF92FF920F9304
:103BD0001F93DF93CF93CDB7DEB728970FB6F89436
:103BE000DEBF0FBECDBFD82EC92EE82FF92FDF01C3
:103BF0000D900020E9F78D01015010400E1B1F0BA6
:103C000048E0E42EF12CE00EF11EC7010E94551889
:103C1000892B29F039E0E32EF12CE00EF11EC701CB
:103C20000E94F41F9093198280931882ED2DFC2D31
:103C3000DF010D900020E9F71197AE1BBF0B8E013D
:103C40000F5F1F4FC80165E070E0AD012D2D3C2DC9
:103C50000E942118C801B80148E050E00E9497185E
:103C6000C8016D2D7C2D45E050E00E949718C701DA
:103C700028960FB6F894DEBF0FBECDBFCF91DF916F
:103C80001F910F91FF90EF90DF90CF900895CF9309
:103C9000DF93AC019093ED818093EC81009709F460
:103CA0006BC08E3091050CF067C087309105F1F143
:103CB000883091059CF48530910544F4833091055A
:103CC00014F58130910509F057C024C08530910565
:103CD00029F18630910509F04FC024C08B30910541
:103CE00089F18C30910544F48930910519F18A30BD
:103CF000910509F041C022C08C30910539F18D3019
:103D00009105D1F527C0FB0160817181CF010E942F
:103D1000B51C23C0CB010E941B1D1FC0CB010E94FC
:103D2000E31D1BC0CB010E94641C17C0CB010E9485
:103D3000151C13C0CB010E94B71B0FC0CB010E9402
:103D40006B1B0BC0CB010E941F1B07C0CB010E9445
:103D5000BB1A03C0CB010E946F1ABC01809118826C
:103D6000909119820E94AA14EC018091188290917E
:103D700019820E94AA8602C0C3E0D0E0CE01DF9182
:103D8000CF9108950F931F9388E090E00E94F41F55
:103D9000809316829093178268E070E00E94CE14A0
:103DA0008C01009709F00BC184ED90E80E949D17EB
:103DB0008C0180911682909117820E94AA8601152B
:103DC000110509F0FCC00091D6801091D780C80180
:103DD0000E945518892B11F00F5F1F4FC8010E94D8
:103DE000F41F8093168290931782B8010E94CE141C
:103DF0008C01009709F0E3C08091D4809091D58028
:103E00009093D1808093D0808730910509F475C05C
:103E10008830910594F4853091053CF48330910508
:103E20001CF5019709F0C5C047C08530910509F41C
:103E300058C0069709F0BDC059C08B30910509F4F0
:103E40008CC08C30910544F48930910509F45DC033
:103E50000A9709F0AEC07CC08C30910509F487C088
:103E60000D9709F0A6C07EC08091B07B9091B17B88
:103E7000892B31F080910D8290910E820E94AA864A
:103E800089E092E80091D4801091D5802091D6806D
:103E90003091D7804091D8805091D9806091DA805C
:103EA0007091DB800E946A1D8C0181E090E090930C
:103EB000B17B8093B07B7DC084ED90E86EEE71E8BD
:103EC0000E94E4178C018091EE819091EF814397DD
:103ED0000CF46FC01092EF811092EE8104E010E0BC
:103EE0006EC084ED90E86CED70E80BC084ED90E856
:103EF00064E57FE70E94E4175CC084ED90E864EE1F
:103F000071E80E94E4178C0154C08091B27B9091BB
:103F1000B37B892B31F08091D2809091D3800E9425
:103F2000AA868091D6809091D7800E94F41FBC0110
:103F30008093D2807093D38084ED90E80E94E41740
:103F40008C0181E090E09093B37B8093B27B31C091
:103F500084ED90E86CED71E8D4CF84ED90E86FE0EB
:103F600072E8CFCF84ED90E868E67DE7CACF809114
:103F7000B47B9091B57B892B31F08091B780909183
:103F8000B8800E94AA868091D6809091D7800E94A6
:103F9000F41FBC018093B7807093B88084ED90E8E3
:103FA0000E94E4178C0181E090E09093B57B8093B0
:103FB000B47B80911682909117820E94AA86C801D4
:103FC0001F910F910895CF93DF93C0E0D0E0CE0111
:103FD0000E94FD85009721F00E94AA862196F7CFC6
:103FE000CE01DF91CF9108950F931F93CF93DF936D
:103FF000182F092F0E94FD85EC01009729F48CE60B
:1040000090E30E94148906C060E070E0412F502FB9
:104010000E940088CE01DF91CF911F910F910895EA
:1040200085309105C9F18630910594F4823091056F
:1040300051F18330910534F4009711F1019709F0A3
:1040400040C01BC08330910509F10497D1F521C010
:104050008830910551F18930910534F4863091050D
:10406000F1F0079771F51EC08A30910521F18A3071
:104070009105F4F00B9729F521C02CE830E323C01B
:1040800023E930E320C02BE930E31DC020EA30E310
:104090001AC026EA30E317C02BEA30E314C020EB45
:1040A00030E311C025EB30E30EC02AEB30E30BC048
:1040B0002FEB30E308C024EC30E305C029EC30E3FB
:1040C00002C02EEC30E3C9010895863079F18730C3
:1040D00070F4833011F1843028F48130D9F08230CB
:1040E000D1F515C08430E1F08530A9F51CC08930C8
:1040F00031F18A3028F48730E1F0883061F51CC056
:104100008D3001F18E3009F18C3029F521C02BED75
:1041100030E323C02EEE30E320C020E031E31DC0A9
:1041200024E131E31AC02BE231E317C02CE331E381
:1041300014C02EE431E311C024E631E30EC027E7BA
:1041400031E30BC02BE831E308C023EA31E305C0BB
:1041500029EB31E302C02EEC31E3C901089586302A
:10416000D9F0873060F48330B9F0843018F48130AE
:1041700010F115C08430B1F08530E9F410C08930F9
:10418000B9F08A3028F4873099F08830A1F40DC056
:104190008C50833080F40CC02AED31E30EC023EE46
:1041A00031E30BC02AEE31E308C025EF31E305C04F
:1041B00028EF31E302C02CEF31E3C9010895DF930A
:1041C000CF93CDB7DEB7ED81FE81E331F10508F085
:1041D00041C0EE58FF4FEE0FFF1F0590F491E02D08
:1041E000099424E032E338C020E132E335C02BE10A
:1041F00032E332C02DE232E32FC02EE332E32CC093
:1042000020E532E329C024E632E326C02AE732E380
:1042100023C02EE832E320C022EA32E31DC023EBA4
:1042200032E31AC024EC32E317C022ED32E314C0AB
:1042300020EE32E311C02AEE32E30EC025EF32E366
:104240000BC024E033E308C028E133E305C02FE2CC
:1042500033E302C02FE333E3C901CF91DF91089527
:104260008430910551F1853091057CF481309105C0
:10427000C1F0823091051CF4892BB1F02DC0823041
:104280009105A9F0039741F515C086309105D9F045
:1042900086309105ACF087309105C1F00897E1F4C4
:1042A00018C02BE433E31AC026E533E317C020E639
:1042B00033E314C02EE633E311C020E833E30EC02D
:1042C00024E933E30BC022EA33E308C027EB33E3EE
:1042D00005C02AEC33E302C028ED33E3C901089599
:1042E000FC018731910508F044C0EB57FF4FEE0FFA
:1042F000FF1F0590F491E02D099427EE33E33BC0B6
:1043000026EF33E338C02DEF33E335C02AE034E342
:1043100032C029E134E32FC029E234E32CC029E381
:1043200034E329C02FE434E326C02CE534E323C072
:1043300026E634E320C02BE734E31DC020E934E354
:104340001AC024EA34E317C023EC34E314C024ED8C
:1043500034E311C02CEE34E30EC02FEF34E30BC076
:104360002FE035E308C02CE135E305C029E235E351
:1043700002C029E335E3C9010895A0E0B0E09070E0
:10438000A070B070FC01893F910508F0F4C1E456BB
:10439000FF4FEE0FFF1F0590F491E02D099429E4E3
:1043A00035E3EBC127E535E3E8C12BE535E3E5C1AE
:1043B00029E635E3E2C126E735E3DFC122E835E34C
:1043C000DCC12EE835E3D9C126E935E3D6C123EABD
:1043D00035E3D3C12AEA35E3D0C12FEB35E3CDC1B4
:1043E00024ED35E3CAC12AED35E3C7C120EE35E33C
:1043F000C4C126EE35E3C1C12EEE35E3BEC12CEFBC
:1044000035E3BBC129E036E3B8C12AE136E3B5C1E3
:1044100029E236E3B2C12AE336E3AFC12AE436E348
:10442000ACC12CE536E3A9C12AE636E3A6C120E7F4
:1044300036E3A3C127E836E3A0C12FE836E39DC1E8
:1044400022EA36E39AC12EEA36E397C12AEB36E335
:1044500094C12AEC36E391C12CED36E38EC122EEF5
:1044600036E38BC128EE36E388C12EEE36E385C1F4
:1044700026EF36E382C127E037E37FC12FE037E341
:104480007CC12CE137E379C128E237E376C126E32A
:1044900037E373C126E437E370C127E537E36DC125
:1044A00028E637E36AC126E737E367C12DE837E33B
:1044B00064C12CE937E361C12BEA37E35EC12BEB22
:1044C00037E35BC12BEC37E358C12AED37E355C125
:1044D00021EF37E352C120E038E34FC123E138E355
:1044E0004CC126E238E349C12EE238E346C125E358
:1044F00038E343C123E438E340C123E538E33DC159
:1045000023E638E33AC12FE638E337C12BE738E337
:1045100034C121E938E331C127EA38E32EC129EB60
:1045200038E32BC12BEC38E328C12DED38E325C14E
:104530002FEE38E322C12AEF38E31FC12AE039E326
:104540001CC12AE139E319C12AE239E316C122E389
:1045500039E313C12AE339E310C12EE439E30DC175
:1045600022E639E30AC128E739E307C12EE839E337
:1045700004C12FE939E301C12BEA39E3FEC029EB7D
:1045800039E3FBC02BEC39E3F8C02DED39E3F5C07E
:1045900025EE39E3F2C02DEE39E3EFC02CEF39E31D
:1045A000ECC02BE03AE3E9C02AE13AE3E6C029E2B5
:1045B0003AE3E3C029E33AE3E0C028E43AE3DDC0AC
:1045C0002AE53AE3DAC023E73AE3D7C025E83AE33D
:1045D000D4C027E93AE3D1C025EA3AE3CEC023EBC1
:1045E0003AE3CBC022EC3AE3C8C024ED3AE3C5C0BD
:1045F00022EE3AE3C2C020EF3AE3BFC02DEF3AE328
:10460000BCC02AE03BE3B9C028E13BE3B6C026E2E8
:104610003BE3B3C023E33BE3B0C020E43BE3ADC0E6
:1046200021E53BE3AAC022E63BE3A7C021E73BE349
:10463000A4C020E83BE3A1C02FE83BE39EC02DE9E6
:104640003BE39BC02DEA3BE398C02DEB3BE395C0D9
:1046500024ED3BE392C02BEE3BE38FC02AEF3BE31C
:104660008CC029E03CE389C029E13CE386C029E213
:104670003CE383C02DE33CE380C021E53CE37DC007
:1046800024E63CE37AC027E73CE377C023E83CE339
:1046900074C02EE83CE371C020EA3CE36EC022EB1C
:1046A0003CE36BC02FEB3CE368C02CEC3CE365C003
:1046B00028ED3CE362C024EE3CE35FC024EF3CE322
:1046C0005CC024E03DE359C022E13DE356C020E256
:1046D0003DE353C023E33DE350C026E43DE34DC03A
:1046E00027E53DE34AC028E63DE347C029E73DE32F
:1046F00044C02AE83DE341C027E93DE33EC024EA47
:104700003DE33BC02AEB3DE338C020ED3DE335C03F
:104710002EED3DE332C02FEE3DE32FC022E03EE31D
:104720002CC025E13EE329C02CE23EE326C023E471
:104730003EE323C024E53EE320C025E63EE31DC062
:104740002CE73EE31AC023E93EE317C023EA3EE329
:1047500014C029EB3EE311C02FEC3EE30EC020EE67
:104760003EE30BC021EF3EE308C02CEF3EE305C063
:1047700021E13FE302C02DE13FE3C90108958F30FD
:10478000910509F4C0C080319105A8F587309105E5
:1047900009F4A1C088309105B8F48330910509F47B
:1047A0008EC08430910540F48130910509F47EC0BB
:1047B000029708F081C07DC08530910509F485C05D
:1047C000069708F085C07EC08B30910509F48FC034
:1047D0008C30910540F48930910509F482C00A9724
:1047E00008F082C07BC08D30910509F486C00E9719
:1047F00008F086C07FC02FE78D3D920709F49BC06B
:104800002FE78E3D920738F52FE7833D920709F495
:1048100086C02FE7843D920778F42FE7813D920709
:1048200009F477C02FE7823D920708F075C0805DDC
:104830009F4709F09BC06AC02FE78B3D920709F4A0
:1048400074C02FE78C3D920708F072C0845D9F47CB
:1048500009F08CC067C02FE7813E920709F477C04A
:104860002FE7823E920750F42FE78F3D920709F41D
:1048700068C0805E9F4708F067C060C02FE78D3F2B
:10488000920709F46AC02FE78E3F920728F48C5FE5
:104890009F4709F06BC05EC02FE78E3F920709F477
:1048A0005FC08F5F9F4709F061C05DC02DE23FE3AD
:1048B0005FC02CE33FE35CC025E43FE359C029E53A
:1048C0003FE356C026E63FE353C02DE73FE350C029
:1048D00025E93FE34DC021EA3FE34AC025EB3FE332
:1048E00047C02EEC3FE344C02FED3FE341C027E03B
:1048F00030E43EC02FE230E43BC029E530E438C06C
:104900002FE730E435C027E930E432C02FEA30E445
:104910002FC021EC30E42CC02FEC30E429C026EE6F
:1049200030E426C025EF30E423C025E031E420C088
:1049300029E131E41DC020E331E41AC023E431E46D
:1049400017C02AE531E414C02EE631E411C029E88D
:1049500031E40EC02EE931E40BC022EB31E408C093
:104960002EEC31E405C02DED31E402C02BEE31E434
:10497000C90108958330B9F0843028F4813051F0B2
:10498000823070F40AC08530A1F0853078F086302E
:10499000B1F412C024E032E414C02AE032E411C0C1
:1049A00022E132E40EC029E132E40BC023E232E41A
:1049B00008C02AE232E405C022E332E402C029E35F
:1049C00032E4C9010895863079F1873070F483307C
:1049D00011F1843028F48130D9F08230D1F515C03E
:1049E0008430E1F08530A9F51CC0893031F18A307E
:1049F00028F48730E1F0883061F51CC0813119F16D
:104A0000823121F1803129F51BC025E432E423C035
:104A10002DE432E420C023E532E41DC029E532E470
:104A20001AC02FE532E417C024E632E414C02AE6A7
:104A300032E411C020E732E40EC027E732E40BC0B5
:104A400022E832E408C02AE832E405C024E932E46E
:104A500002C02EE932E4C90108952CE82DB984E89A
:104A60008EB980E884B985B9739890EF9AB980E7D8
:104A70008BB988E383BB80E384BB8CE18093010125
:104A80008093020183EC81BB83E080BB909369003B
:104A90008AE080936A008CE38DBB2093740091E0E0
:104AA00090936F0085E080938100909371008093D4
:104AB000910008958FB7F894E4E8F0E02081318107
:104AC000118210828FBF7894C90108950097D9F49C
:104AD0005C9A84B3806384BBA3988FEF80930401B6
:104AE0005C98A39A70930501A49885E0982F9A95F5
:104AF000F1F7A49A60930501A4988A95F1F7A49A16
:104B0000A3985C9A089581309105D9F45D9A84B395
:104B1000806384BBA3988FEF809304015D98A39A70
:104B200070930501A49885E0982F9A95F1F7A49ABF
:104B300060930501A4988A95F1F7A49AA3985D9AC9
:104B400008950297D1F45E9A84B3806384BBA398DE
:104B50008FEF809304015E98A39A70930501A49847
:104B600085E0982F9A95F1F7A49A60930501A4988F
:104B70008A95F1F7A49AA3985E9A08950097D9F4BC
:104B80005C9A84B3806384BB8FEF80930401A39A03
:104B90005C98A39870930501A49885E0982F9A9546
:104BA000F1F7A49A60930501A4988A95F1F7A49A65
:104BB000A39A5C9A089581309105D9F45D9A84B3E3
:104BC000806384BB8FEF80930401A39A5D98A398C0
:104BD00070930501A49885E0982F9A95F1F7A49A0F
:104BE00060930501A4988A95F1F7A49AA39A5D9A17
:104BF00008950297D1F45E9A84B3806384BB8FEFEB
:104C000080930401A39A5E98A39870930501A498D9
:104C100085E0982F9A95F1F7A49A60930501A498DE
:104C20008A95F1F7A49AA39A5E9A0895009721F5C0
:104C30005C9A84B3806384BB109204018FEF8093ED
:104C40000501A39A5C98A398A59895E0892F8A9569
:104C5000F1F780910301582F40E0A59A892F8A959A
:104C6000F1F7A5989A95F1F780910301282F30E08C
:104C7000A59AA39A5C9A51C08130910521F55D9A5D
:104C800084B3806384BB109204018FEF809305018D
:104C9000A39A5D98A398A59895E0892F8A95F1F736
:104CA00080910301582F40E0A59A892F8A95F1F74A
:104CB000A5989A95F1F780910301282F30E0A59AE5
:104CC000A39A5D9A2AC0029729F040E050E020E0C4
:104CD00030E023C05E9A84B3806384BB10920401E9
:104CE0008FEF80930501A39A5E98A398A59895E00D
:104CF000892F8A95F1F780910301582F40E0A59AFA
:104D0000892F8A95F1F7A5989A95F1F7809103017B
:104D1000282F30E0A59AA39A5E9A242B352BC9013F
:104D20000895009721F55C9A84B3806384BB109248
:104D300004018FEF80930501A3985C98A39AA5982E
:104D400095E0892F8A95F1F780910301582F40E073
:104D5000A59A9A95F1F7A59882E08A95F1F7809146
:104D60000301282F30E0A59AA3985C9A51C08130A6
:104D7000910521F55D9A84B3806384BB1092040190
:104D80008FEF80930501A3985D98A39AA59895E06D
:104D9000892F8A95F1F780910301582F40E0A59A59
:104DA0009A95F1F7A59882E08A95F1F78091030131
:104DB000282F30E0A59AA3985D9A2AC0029729F07F
:104DC00040E050E020E030E023C05E9A84B380638E
:104DD00084BB109204018FEF80930501A3985E9825
:104DE000A39AA59895E0892F8A95F1F78091030100
:104DF000582F40E0A59A9A95F1F7A59882E08A95F8
:104E0000F1F780910301282F30E0A59AA3985E9ACC
:104E1000242B352BC9010895739A739880E991E08A
:104E20000197F1F7739A80E991E028EC30E0F901FD
:104E30003197F1F70197D9F70895AC0120E030E000
:104E4000F901EE0FFF1FE20FF31F85E0EE0FFF1FCA
:104E50008A95E1F7E858F248DA01BF016C5B7F4FB1
:104E600002C081918D93E617F707D9F72F5F3F4F67
:104E70004C5B5F4F2530310519F708952F923F9213
:104E80004F925F926F927F928F929F92AF92BF925A
:104E9000CF92DF92EF92FF920F931F93DF93CF9306
:104EA000CDB7DEB7AE970FB6F894DEBF0FBECDBF5D
:104EB0002D96CEACDFAC2D9724960FAD249725967A
:104EC000EFAC259727966EAC7FAC279729968EADD1
:104ED0009FAD29979EA78DA72F96AEADBFAD2F97FB
:104EE000BCA7ABA76196EEADFFAD6197FAA7E9A7A6
:104EF00063968EAD9FAD639798A78FA36596AEAD71
:104F0000BFAD6597BEA3ADA36796EEADFFAD679746
:104F1000FCA3EBA369968EAD9FAD69979AA389A375
:104F20006B96AEADBFAD6B97B8A3AF8F6D96EEAD80
:104F3000FFAD6D97FE8FED8F6F968EAD9FAD6F9726
:104F40009C8F8B8FA196AEADBFADA197BA8FA98F65
:104F5000A396EEADFFADA397F88FEF8BA7968CAC21
:104F60009DACAEACBFACA797AB962CAC3DAC4EACF9
:104F70005FACAB97AF968CAD9DADAEADBFADAF970F
:104F80008B8B9C8BAD8BBE8BE3968CAD9DADAEAD0C
:104F9000BFADE3978F87988BA98BBA8BE7968CADC3
:104FA0009DADAEADBFADE7978B879C87AD87BE87C4
:104FB000EB968CAD9DADAEADBFADEB978F83988773
:104FC000A987BA87EF968CAD9DADAEADBFADEF971B
:104FD0008B839C83AD83BE8300D000D08CEA92E4A7
:104FE000ADB7BEB712969C938E9311972B968EAD4C
:104FF0009FAD2B9714969C938E9313970E94FB88DA
:1050000083EE92E4EDB7FEB792838183D482C382AC
:105010000E94FB888AE193E4ADB7BEB712969C93D9
:105020008E931197112707FD109514961C930E93DC
:1050300013970E94FB8880E593E4EDB7FEB7928357
:105040008183FF24E7FCF094F482E3820E94FB88D2
:105050008AE893E4ADB7BEB712969C938E931197EE
:1050600014967C926E9213970E94FB8881EC93E4D5
:10507000EDB7FEB7928381838DA59EA5948383832C
:105080000E94FB8889EF93E4ADB7BEB712969C935C
:105090008E931197EBA5FCA51496FC93EE931397B2
:1050A0000E94FB8881E394E4ADB7BEB712969C934F
:1050B0008E931197E9A5FAA51496FC93EE93139796
:1050C0000E94FB8883E794E4ADB7BEB712969C9329
:1050D0008E931197EFA1F8A51496FC93EE93139776
:1050E0000E94FB8887EB94E4ADB7BEB712969C9301
:1050F0008E931197EDA1FEA11496FC93EE93139756
:105100000E94FB8880EF94E4ADB7BEB712969C93E3
:105110008E931197EBA1FCA11496FC93EE93139739
:105120000E94FB8887E295E4ADB7BEB712969C93C8
:105130008E931197E9A1FAA11496FC93EE9313971D
:105140000E94FB888CE595E4ADB7BEB712969C93A0
:105150008E931197EF8DF8A11496FC93EE9313970D
:105160000E94FB8881E995E4ADB7BEB712969C9387
:105170008E931197ED8DFE8D1496FC93EE931397FD
:105180000E94FB8888EC95E4ADB7BEB712969C935D
:105190008E931197EB8DFC8D1496FC93EE931397E1
:1051A0000E94FB8885E096E4ADB7BEB712969C934B
:1051B0008E931197E98DFA8D1496FC93EE931397C5
:1051C0000E94FB888DE396E4ADB7BEB712969C9320
:1051D0008E931197EF89F88D1496FC93EE931397A5
:1051E0000E94FB8800D087E796E4ADB7BEB7129661
:1051F0009C938E931197EDB7FEB783829482A5821C
:10520000B6820E94FB888DEA96E4ADB7BEB71296CF
:105210009C938E931197EDB7FEB72382348245821B
:1052200056820E94FB888AEE96E4ADB7BEB712960E
:105230009C938E9311978B899C89AD89BE89EDB71C
:10524000FEB783839483A583B6830E94FB8883E2A1
:1052500097E4ADB7BEB712969C938E9311978F8546
:105260009889A989BA89EDB7FEB783839483A5830A
:10527000B6830E94FB8888E597E4ADB7BEB7129667
:105280009C938E9311978B859C85AD85BE85EDB7DC
:10529000FEB783839483A583B6830E94FB8883E94A
:1052A00097E4ADB7BEB712969C938E9311978F81FA
:1052B0009885A985BA85EDB7FEB783839483A583C6
:1052C000B6830E94FB888AEC97E4ADB7BEB712960E
:1052D0009C938E9311978B819C81AD81BE81EDB79C
:1052E000FEB783839483A583B6830E94FB880F90C7
:1052F0000F9081E098E4ADB7BEB712969C938E9361
:105300001197CE01019614969C938E9313970E9449
:1053100049890F900F900F900F90AE960FB6F894AA
:10532000DEBF0FBECDBFCF91DF911F910F91FF90D8
:10533000EF90DF90CF90BF90AF909F908F907F9035
:105340006F905F904F903F902F9008956F927F9253
:105350008F929F92AF92BF92CF92DF92EF92FF9285
:105360000F931F93DF93CF93CDB7DEB7C655D140D0
:105370000FB6F894DEBF0FBECDBF4C0100E010E0C9
:10538000AA24BB2464E4C62ED12C53E0652E712CD4
:105390006C0E7D1E0C9DB0010D9D700D1C9D700D41
:1053A00011247301E60EF71E6E5F7F4FC70144E4C0
:1053B00050E00E94D38920E030E01BC0D701A20F4B
:1053C000B31F0C9DF0010D9DF00D1C9DF00D1124DF
:1053D000E20FF31FE80DF91D9C918081981739F0B9
:1053E00024E430E005E010E041E0A42EB12C2F5F72
:1053F0003F4F2434310510F30F5F1F4F0530110567
:105400004CF281E0A816B10409F042C08E010F5F92
:105410001F4FC80160E070E042E050E00E94D38975
:1054200089819A81892B49F4BA82A982C80160E0F6
:1054300070E042E050E00E94E389EE24FF24CC2497
:10544000DD2486010E5F1F4FC4018C0D9D1DB80128
:1054500044E450E00E94E389C701880F991F8E0D34
:105460009F1D25E0880F991F2A95E1F788589248DB
:10547000B80144E450E00E94D3890894E11CF11C77
:1054800084E490E0C80ED91E95E0E916F104C9F64F
:10549000C501CA5ADE4F0FB6F894DEBF0FBECDBFAE
:1054A000CF91DF911F910F91FF90EF90DF90CF9000
:1054B000BF90AF909F908F907F906F9008958F9244
:1054C0009F92AF92BF92CF92DF92EF92FF920F9393
:1054D0001F93162F972E5A01822EA701960160E680
:1054E00070E0869F7001879FF00C969FF00C11244E
:1054F00084E79DE7E80EF91EC701612F792D0E9410
:10550000A067C701612F792DA501282D0E9445664E
:105510001F910F91FF90EF90DF90CF90BF90AF90D1
:105520009F908F90089520E630E0FC01E29FC0013B
:10553000E39F900DF29F900D11248C5892480E9489
:10554000AD67089520E630E0FC01E29FC001E39FD3
:10555000900DF29F900D11248C5892480E94B467D0
:1055600008950F931F93CF93DF9304E71DE7E8019E
:105570008C81813019F4CE010E947465C05ADF4FCE
:105580008FE7C435D807A1F7F80182819381892B71
:1055900029F4C8016FE070E00E94B363005A1F4F06
:1055A0000C171D0789F7DF91CF911F910F91089577
:1055B000CF93DF93C4E7DDE78C81813029F4CE01FE
:1055C00060E077EB0E94A763C05ADF4F8FE7C435D6
:1055D000D80791F7DF91CF910895EF92FF920F9343
:1055E0001F93CF93DF93E82EC4E7DDE7FF241C2F42
:1055F0000D2FCE0161E070E00E949B63892B19F0B2
:105600002DE030E0A7C082E0F81679F08F1530F079
:10561000FF2079F081E0F81671F407C083E0F816F6
:1056200021F084E0F81639F404C0CE0168E370E19B
:1056300006C0CE0102C0812F902F60E370E10E946E
:10564000A1638E819F81019741F48C81813029F47F
:10565000812F902F61E070E004C0812F902F60E0D7
:1056600070E00E94EF636E857F85660F771F660F7F
:10567000771F812F902F0E9459636C897D89812F1C
:10568000902F0E94C56388859985019711F58C81BB
:105690008130F9F46E897F89812F902F0E94CB632E
:1056A000688D798D812F902F0E94D163812F902F4B
:1056B00061E070E00E94BF634CA15DA16EA17FA17B
:1056C000812F902F0E94BB67812F902F0E947465BD
:1056D00006C0812F902F60E070E00E94BF636A8D4A
:1056E0007B8D882777FD8095982FEFE0660F771FD9
:1056F000881F991FEA95D1F724E630E040E050E09A
:105700000E94AC85812F902FB9010E947763812F71
:10571000902F6E2D70E00E942D64812F902F60E0FD
:1057200070E00E94DD63812F902F60E077EB0E9494
:10573000A763812F902F0E945965812F902F0E947F
:105740006F65F394C05ADF4F85E0F81609F04FCF2C
:1057500020E030E0C901DF91CF911F910F91FF90C0
:10576000EF9008950F931F93DF93CF9300D0CDB7A1
:10577000DEB78C010E943E658F5F9F4799F4C80198
:10578000BE016F5F7F4F0E940960892B59F48981A8
:105790009A81019739F484E098E40E94148920E00A
:1057A00030E006C089E398E40E9414892EE030E0DE
:1057B000C9010F900F90CF91DF911F910F91089524
:1057C000EF92FF920F931F93CF93DF93E82EC4E7DE
:1057D000DDE78A819B81892B41F4CE010E94B22BA7
:1057E000CE0168E572E00E94B963C05ADF4F8FE7CF
:1057F000C435D80771F708E71DE7FF24E8012497AF
:10580000CE0161E070E00E949B63892B19F02DE0CE
:1058100030E0DBC0E2E0FE1679F0EF1530F0FF205B
:10582000B9F0F1E0FF16A1F407C083E0F81641F0EB
:10583000E4E0FE1669F408C0CE0168E370E10BC035
:10584000CE0168E370E007C0CE0160E370E003C002
:10585000CE0160E370E10E94A163F801828193812F
:10586000019739F48081813021F4CE0161E070E04C
:1058700003C0CE0160E070E00E94EF63CE0162E001
:1058800070E00E948363F801608D718DCE010E94EB
:105890006B63F80162857385660F771F660F771F4C
:1058A000CE010E945963CE0160E070E00E948F63D8
:1058B000F801668577852485358582859385289FBF
:1058C000A001299F500D389F500D1124CE010E9438
:1058D0003D66F80160897189CE010E94C563F801B7
:1058E000848195810197F9F480818130E1F46289A6
:1058F0007389CE010E94CB63F80164897589CE015A
:105900000E94D163CE0161E070E00E94BF63F801A4
:1059100040A151A162A173A1CE010E94BB67CE013B
:105920000E94746505C0CE0160E070E00E94BF6314
:10593000F8018081813049F4CE0161E070E00E947D
:10594000A562CE0161E070E008C0CE0160E070E0C9
:105950000E94A562CE0160E070E00E947D63F801C4
:1059600066897789882777FD8095982FAFE0660F45
:10597000771F881F991FAA95D1F724E630E040E0F1
:1059800050E00E94AC85CE01B9010E947763CE0140
:105990006E2D70E00E942D64CE0160E070E00E94E8
:1059A000DD63CE0160E077EB0E94A763CE010E9429
:1059B0005965CE010E946F65F394005A1F4FF5E0C0
:1059C000FF1609F01BCF20E030E0C901DF91CF9135
:1059D0001F910F91FF90EF9008958F929F92AF9239
:1059E000BF92CF92DF92EF92FF920F931F93DF93BC
:1059F000CF9300D000D0CDB7DEB76C0119821A82E8
:105A00001B821C8200E010E0EE24FF2490E6892E29
:105A1000912C8FEAA82E88E4B82E089DF001099DEC
:105A2000F00D189DF00D1124EC58F2488081918101
:105A30008C159D05E9F5CF010E94B22B7C010097E2
:105A4000C9F000D000D000D0EDB7FEB7319680E7A6
:105A500098E4ADB7BEB712969C938E931197D382FC
:105A6000C282158304830E94FB882DB73EB72A5F4C
:105A70003F4F88C000D000D000D0EDB7FEB73196C0
:105A8000ADB7BEB71296BC92AE921197D382C282C6
:105A9000158304830E94FB88780105E010E02DB790
:105AA0003EB72A5F3F4F0FB6F8943EBF0FBE2DBFE3
:105AB0000F5F1F4F053011050CF4AFCF8AEE98E44D
:105AC0000E94148980E690E0DC01EA9EC001EB9E12
:105AD000900DFA9E900D11248C589248BE016F5F74
