:100A6100C103C182C1004210870000C104C101025B
:070A7100300000023200001A
:1009B80090E6007410F01207DDE490E6C4F090E6CB
:1009C800C5F090E6D0F090E6D17408F000000090F1
:1009D800E6EA7402F000000090E6047480F000007B
:1009E800007402F00000007408F0000000E4F00059
:1009F800000090E6187405F000000090E61B740DE6
:100A0800F090E680E030E71800000090E6267402D7
:100A1800F0000000E490E627F0000000D200801407
:100A2800000000E490E626F000000090E6277440FD
:100A3800F000000000000090E6917480F0000000D3
:100A4800F0000000E490E670F075B2FF43800143C7
:090A5800800443804043808022A9
:1006C200E5AA30E003020753E5BB20E70302075324
:1006D20090E690E0FE90E691E07C002400F531EC9B
:1006E2003EF530453170057480F08065200134D2CA
:1006F20086C28730030DC2827F017E001208A1D21A
:1007020082C203E530C313F530E53113F531E5302C
:1007120090E6D0F0E53190E6D1F0E490E691F0F584
:10072200BB802E00000090F001E090E6D0F00000C7
:100732000090F000E090E6D1F000000090E6047432
:1007420002F000000090E6917480F0000000F0C218
:10075200012004030207DC90E6D0E0FE90E6D1E03F
:100762007C002400F533EC3EF53200000090E6B147
:10077200E0FE90E6B2E02400901088F0EC3E90108B
:1007820087F0000000E5334532702B30000EC3E0E5
:100792009402501D90E6487408F08015C3901088AA
:1007A200E09440901087E09400500690E648740868
:1007B200F0C204D20222E5BB30E71FE5AC20E41A06
:1007C200D287C28630020DC2827F017E001208A14A
:0A07D200D282C20275BB07000000CE
:0107DC0022FA
:020D5000D322AC
:020D5200D322AA
:020D5400D322A8
:0800800090E6BAE0F537D32247
:100D280090E740E537F0E490E68AF090E68B04F02F
:020D3800D322C4
:0800880090E6BAE0F534D32242
:100D3A0090E740E534F0E490E68AF090E68B04F020
:020D4A00D322B2
:020D5600D322A6
:020D5800D322A4
:020D5A00D322A2
:10012E0090E6B9E0120C12017AC00198C401DCC548
:10013E00020EC6022CC8024AC90269CA0287CC0244
:10014E00B0CD02CDCE02EAD00305D10160E00000B1
:10015E00032090E740E5BBF0E490E68AF090E68B52
:10016E0004F090E6A0E04480F002033FD204A20423
:10017E00E43390E740F0E490E68AF090E68B04F0EA
:10018E0090E6A0E04480F002033F00000090E604F9
:10019E007480F00000007402F00000007408F0009B
:1001AE000000E4F000000090E6917480F000000082
:1001BE00F000000090E74074C4F0E490E68AF090FE
:1001CE00E68B04F090E6A0E04480F002033FC2808C
:1001DE0090E74074C5F00000000000007F647E00D0
:1001EE001208A1D2807F147E001208A1E490E68A44
:1001FE00F090E68B04F090E6A0E04480F002033F1E
:10020E00D202C20490E74074C6F0E490E68AF09001
:10021E00E68B04F090E6A0E04480F002033FD201AA
:10022E00A201E43390E740F0E490E68AF090E68B8A
:10023E0004F090E6A0E04480F002033F90E6F574EF
:10024E00FFF0E090E740F0E490E68AF090E68B0451
:10025E00F090E6A0E04480F002033FD203A203E454
:10026E003390E740F0E490E68AF090E68B04F0904D
:10027E00E6A0E04480F002033FC286C287C2827FBE
:10028E00017E001208A1D28290E74074CCF0E49077
:10029E00E68AF090E68B04F090E6A0E04480F0024F
:1002AE00033FD20390E6D0E090E740F0E490E68A78
:1002BE00F090E68B04F090E6A0E04480F08072D2DD
:1002CE000390E6D1E090E740F0E490E68AF090E605
:1002DE008B04F090E6A0E04480F0805590E627E095
:1002EE0090E740F0E490E68AF090E68B04F090E61A
:1002FE00A0E04480F0803A90E626E090E740F0E4FB
:10030E0090E68AF090E68B04F090E6A0E04480F050
:10031E00801F90E6F574FFF0A201E43390E740F001
:10032E00E490E68AF090E68B04F090E6A0E044803C
:03033E00F0C322E7
:1008E700C0E0C083C082D2065391EF90E65D7401E9
:0808F700F0D082D083D0E03282
:100CFC00C0E0C083C0825391EF90E65D7404F0D0E5
:060D0C0082D083D0E0322A
:100D1200C0E0C083C0825391EF90E65D7402F0D0D0
:060D220082D083D0E03214
:100B9300C0E0C083C08290E680E030E70E85222665
:100BA300852327852A28852B29800C852A26852BB2
:100BB300278522288523295391EF90E65D7410F051
:070BC300D082D083D0E032A4
:100CE400C0E0C083C082D2085391EF90E65D7408DF
:080CF400F0D082D083D0E03281
:100BCA00C0E0C083C08290E680E030E70E8522262E
:100BDA00852327852A28852B29800C852A26852B7B
:100BEA00278522288523295391EF90E65D7420F00A
:070BFA00D082D083D0E0326D
:0108FF0032C6
:010D5C003264
:010D5D003263
:010D5E003262
:010D5F003261
:010D60003260
:010D6100325F
:010D6200325E
:010D6300325D
:010D6400325C
:010D6500325B
:010D6600325A
:010D67003259
:010D68003258
:010D69003257
:010D6A003256
:010D6B003255
:010D6C003254
:010D6D003253
:010D6E003252
:010D6F003251
:010D70003250
:010D7100324F
:010D7200324E
:010D7300324D
:010D7400324C
:010D7500324B
:010D7600324A
:010D77003249
:010D78003248
:010D79003247
:010D7A003246
:010D7B003245
:010D7C003244
:010D7D003243
:010D7E003242
:100A78006080100001020301040404070002020A56
:100A880000001000FFFDFDFFFFFFFFC30009121B60
:100A98001B2D3F3F01020301040404070802000064
:100AA80000001000FFFEFEFFFFFFFFC300121B1B2C
:100AB8001B2D3F3F010A3201010101070101030C0F
:100AC80000000400FFFEFFFFFFFFFFC3120000123B
:100AD8001B2D363F010A3201010101070101030CF8
:100AE80000000400FFFEFFFFFFFFFFC31209091209
:0E0AF800002D363F471080000000C3061B1182
:1007DD0090E60174EEF090E6F574FFF0901080E075
:1007ED0090E6F3F0901081E090E6C3F0901082E077
:1007FD0090E6C1F0901083E090E6C2F0901085E095
:10080D0090E6C0F0901086E090E6F4F090E6F3E00C
:10081D004420F075AF067410F59A7400F59B759D24
:10082D00E4E4F59EFF90E67BE090E67CF00FBF8060
:10083D00F4759AE4E4F59B759DE0F59EFF90E67BDB
:10084D00E090E67CF00FBF80F490E67174FFF0E469
:10085D00F5B490E672E04480F043B480E490E6C4D1
:10086D00F090E6C5F090E6C6F090E6CAF090E6C7C7
:10087D00F090E6C8F090E6C9F090E6CB7420F090C9
:10088D00E6CC7401F090E6CD04F0E490E60CF09027
:03089D00E67FF003
:0108A0002235
:1000900012010002000000404705021000000102AA
:1000A00000010A06000200000040010009022000D1
:1000B00001010060FA0904000002FF0000000705CA
:1000C0000202000200070588020002000902200067
:1000D00001010060FA0904000002FF0000000705AA
:1000E00002024000000705880240000004030904E2
:1000F0001E035400450053004900530020005000E7
:1001000055004A002000430041004C0049001E03F6
:1001100052004F0042004F00540020004A004100AE
:0E012000520042004F00540045005200000003
:10034100E4F513F512F511F510C208C205C207C292
:10035100061209B87E007F908E248F25752C0075BA
:100361002DA27522007523AC752A00752BCC752E34
:1003710000752FEC90E680E030E70E85222685237C
:1003810027852A28852B29800C852A26852B2785D8
:100391002228852329EE54E070030204B27514006B
:1003A1007515807E007F908E168F17C3742C9FFF6A
:1003B10074019ECF2402CF3400FEE48F0F8E0EF520
:1003C1000DF50CF50BF50AF509F508AF0FAE0EADFD
:1003D1000DAC0CAB0BAA0AA909A808C3120C015059
:1003E1002AE515250BF582E514350AF58374CDF060
:1003F100E4FAF9F8E50B2401F50BEA350AF50AE907
:100401003509F509E83508F50880C0E4F50BF50A6A
:10041100F509F508AF0FAE0EAD0DAC0CAB0BAA0A8A
:10042100A909A808C3120C015035AE0AAF0BE51794
:100431002FF582E5163EF583E0FDE5152FF582E502
:10044100143EF583EDF0E4FAF9F8EF2401F50BEA37
:100451003EF50AE93509F509E83508F50880B5855D
:10046100142485152574902480FF740034FFFEC385
:10047100E52D9FF52DE52C9EF52CC3E5279FF5274E
:10048100E5269EF526C3E5299FF529E5289EF52851
:10049100C3E5239FF523E5229EF522C3E52B9FF5B6
:1004A1002BE52A9EF52AC3E52F9FF52FE52E9EF514
:1004B1002ED2E843D82090E668E04409F090E65C4B
:1004C100E0443DF0D2AFD209120C38538EF8C20885
:1004D10030060512050BC206300829120D505024B2
:1004E100C208120CBF20051690E682E030E704E056
:1004F10020E1EF90E682E030E604E020E0E4120C37
:0905010067120D521206C280C7F8
:01050A0022CE
:10050B0090E6B9E070030205E614700302064C2472
:10051B00FE700302068024FB70030205E0147003D7
:10052B000205DA1470030205CE1470030205D424FD
:10053B000560030206AE120D5440030206BA90E6A4
:10054B00BBE024FE602C14604724FD601614603160
:10055B0024067065E52490E6B3F0E52590E6B4F04B
:10056B000206BAE52C90E6B3F0E52D90E6B4F00266
:10057B0006BAE52690E6B3F0E52790E6B4F002065E
:10058B00BAE52890E6B3F0E52990E6B4F00206BA96
:10059B0090E6BAE0FF120C93AA06A9077B01EA4981
:1005AB00600DEE90E6B3F0EF90E6B4F00206BA9071
:1005BB00E6A0E04401F00206BA90E6A0E04401F0A8
:1005CB000206BA120D3A0206BA1200880206BA12D5
:1005DB0000800206BA120D280206BA120D5640030D
:1005EB000206BA90E6B8E0247F6028146039240232
:1005FB007046A205E433FF25E0FFA207E4334F90DA
:10060B00E740F0E4A3F090E68AF090E68B7402F0FA
:10061B000206BAE490E740F0A3F090E68AF090E689
:10062B008B7402F00206BAE490E741F090E68AF090
:10063B0090E68B7402F0807790E6A0E04401F080A6
:10064B006E120D58506990E6B8E024FE6018240233
:10065B00705D90E6BAE0B40104C205805290E6A04A
:10066B00E04401F0804990E6BAE0604390E6A0E0F8
:10067B004401F0803A120D5A503590E6B8E024FE52
:10068B0060182402702990E6BAE0B40104D2058008
:10069B001E90E6A0E04401F0801590E6A0E0440136
:1006AB00F0800C12012E500790E6A0E04401F09070
:0606BB00E6A0E04480F01F
:0106C1002216
:03003300020D4C6F
:040D4C0053D8EF3257
:100C670090E682E030E004E020E60B90E682E03098
:100C7700E119E030E71590E680E04401F07F147E4B
:0C0C8700001208A190E680E054FEF0226C
:100CBF0090E682E044C0F090E681F04387010000A7
:040CCF0000000022FF
:100C380030090990E680E0440AF0800790E680E0F9
:100C48004408F07FDC7E051208A190E65D74FFF091
:0F0C580090E65FF05391EF90E680E054F7F022C2
:1008A1008E188F1990E600E054187012E519240192
:1008B100FFE43518C313F518EF13F519801590E609
:1008C10000E05418FFBF100BE51925E0F519E518F4
:1008D10033F518E5191519AE18700215184E600593
:0608E100120CD380EE2290
:020C9300A907AF
:100C9500AE2EAF2F8F828E83A3E064037017AD0154
:100CA50019ED7001228F828E83E07C002FFDEC3ED2
:090CB500FEAF0580DF7E007F0028
:010CBE002213
:100CD3007400F58690FDA57C05A3E582458370F934
:010CE30022EE
:03004300020900AF
:030053000209009F
:100900000208E700020D1200020CFC00020CE400D9
:10091000020B9300020BCA000208FF00020D5C00EC
:10092000020D5D00020D5E00020D5F00020D600011
:10093000020D6100020D6200020D6300020D6400F1
:10094000020D6500020D5C00020D6600020D6700DD
:10095000020D6800020D6900020D6A00020D6B00B5
:10096000020D6C00020D5C00020D5C00020D5C00CB
:10097000020D6D00020D6E00020D6F00020D700081
:10098000020D7100020D7200020D7300020D740061
:10099000020D7500020D7600020D7700020D780041
:1009A000020D7900020D7A00020D7B00020D7C0021
:0809B000020D7D00020D7E0026
:03000000020B07E9
:0C0B0700787FE4F6D8FD758137020B4EB4
:100C0100EB9FF5F0EA9E42F0E99D42F0E89C45F049
:010C110022C0
:100C1200D083D082F8E4937012740193700DA3A371
:100C220093F8740193F5828883E473740293686085
:060C3200EFA3A3A380DF85
:100B1300020341E493A3F8E493A34003F68001F2B4
:100B230008DFF48029E493A3F85407240CC8C333E3
:100B3300C4540F4420C8834004F456800146F6DFB2
:100B4300E4800B0102040810204080900A61E47ED7
:100B5300019360BCA3FF543F30E509541FFEE493A7
:100B6300A360010ECF54C025E060A840B8E493A36E
:100B7300FAE493A3F8E493A3C8C582C8CAC583CA99
:100B8300F0A3C8C582C8CAC583CADFE9DEE780BE51
:010B060000EE
:00000001FF
